S02200006578616D706C652D7261772D646174612D7265676973746572732E73726563D3
S214400000C0760020457440001575400015754000C8
S214400010157540001575400015754000000000003D
S21440002000000000000000000000000015754000C1
S214400030157540000000000015754000953C4000D6
S21440004015754000157540003D3040001575400060
S2144000501575400015754000157540002D5140003F
S214400060195140001575400000000000D96340005B
S214400070F163400015754000157540001575400049
S2144000801575400015754000157540001575400003
S21440009015754000813C4000157540002D444000D9
S2144000A05144400069444000814440009944400027
S2144000B0B144400015754000157540000000000032
S2144000C000000000000000000000000000000000EB
S2144000D000000000000000000000000000000000DB
S2144000E000000000000000000000000000000000CB
S2144000F000000000000000000000000015754000F1
S2144001001575400015754000000000000000000016
S214400110000000000000000000000000000000009A
S214400120000000000000000000000000000000008A
S214400130000000000000000000000000000000007A
S214400140000000000000000010B5054C237833B9CD
S214400150044B13B10448AFF300800123237010BD55
S214400160982E00200000000094C840000C4B43B17D
S2144001700C480D4910B5AFF300800C48036823B90E
S21440018010BD0A48036833B97047094B002BF7D0B7
S214400190BDE810401847064B002BF5D0184700BF67
S2144001A00000000094C840009C2E002094C84000E8
S2144001B00000000090B58BB002AF0023FB613B46C9
S2144001C01846354B984735490320354B98473549AF
S2144001D00320334B984734490320314B98473349E3
S2144001E003202F4B9847324903202D4B98473149DF
S2144001F003202B4B984730490320294B98472F49DB
S2144002000320274B98472E490320254B98472D49D6
S2144002100320234B984726490320214B98472A49D9
S21440022003201F4B9847224903201D4B98473B46C7
S2144002301846264B9847F8612549F869254B984754
S2144002400023019307230093072380226021012087
S214400250214CA047F8612149F8691E4B98470F4941
S21440026003200F4B98471E4B1B6803F00103002BDF
S214400270F9D01C4B9847F8611B49F869154B9847CD
S2144002801A4B9847164B1B6823F00103144A136019
S214400290174B9847E7E700BFF50240005CC14000B7
S2144002A0AD56400090C14000B4C1400000C240007E
S2144002B028C240002CC2400040C2400050C240000D
S2144002C064C2400078C240008CC2400075064000C0
S2144002D0CCC240001104400041074000F0C240003C
S2144002E0B42E00202D08400014C3400011294000C1
S2144002F03929400080B582B000AF7860184B9847E7
S2144003000020184B984718490520184B984700225C
S21440031017490020174B98470120174B9847174816
S214400320174B98470020174B98477B6800221A6067
S2144003307B68154A5A607B68144A9A607B684FF41B
S21440034000421A617B684FF400425A617B68012282
S2144003501A7678680E4B984700BF0837BD4680BD72
S214400360D5284000090540004D044000695640002D
S21440037095034000A12A4000F929400040420F0062
S2144003804D3F4000CD3E400079054000E10540002D
S2144003903905400090B585B000AF786039600020E0
S2144003A0184B984703460C46C7E902343B68002B77
S2144003B019D1154B5A88144B1B88D31A9BB2402B25
S2144003C011D0114B5B8803F03F02D7E902340E4947
S2144003D00132D2000A44C2E900340B4B5B88013339
S2144003E09AB2094B5A8001223B6802FA03F3074A45
S2144003F0126813431A46054B1A6000BF1437BD46B1
S21440040090BD00BF5941400088440020B42E0020D3
S21440041090B585B002AF786039607B68002B0BDA08
S2144004207868074B9847034600937B683A680549C7
S2144004300120054CA047FEE700BF0C37BD4690BDE7
S2144004407955400030C34000AD56400090B587B067
S21440045000AFF860B9607A6000237B617B69184A18
S21440046098187B69C3F580717B68BA68154CA047BD
S21440047003461A467B6913447B617B69FF2B19D878
S2144004807B690F4A98187B69C3F580730E4A1946F4
S2144004900E4B984703461A467B6913447B617B693B
S2144004A0FF2B09D87B699BB21A4605490020084BAA
S2144004B0984702E000BF00E000BF1C37BD4690BD35
S2144004C0B82E002029A3400044C34000818C400041
S2144004D04D54400098B500AF0020034B9847034664
S2144004E00C461846214698BD5941400080B582B01A
S2144004F000AF78607868034B984700BF0837BD4622
S21440050080BD00BF252A400080B586B000AF0346B8
S214400510FB71FB793B734FF461233B6100233B75D2
S21440052007F10C031846034B984700BF1837BD46E3
S21440053080BD00BF9953400080B582B000AF786060
S2144005407B681B7E002B06D0012B07D10749012074
S214400550074B984705E0074B984702E04FF0FF33BC
S21440056000E0002318460837BD4680BD808D5B00FE
S214400570F9344000BD2E400090B585B000AFF8601D
S2144005807A603B600B46FB72FB681B7E002B0ED0EE
S214400590012B18D13B689AB2F97A7B6801200D4C42
S2144005A0A047034611E04FF4FA400B4B98473B6890
S2144005B09AB2F97A7B686920084CA0470346002B1C
S2144005C0F1D1002301E04FF0FF3318461437BD4603
S2144005D090BD00BF4D3A4000252A4000E52F400020
S2144005E090B587B000AFF8607A603B600B46FB7210
S2144005F0FB681B7E002B24D0012B2ED100237B6171
S21440060015E07B69DAB2FB7A1344D9B27A687B6923
S214400610134401220120144CA04703463B613B692A
S214400620002B01D03B691AE07B6901337B617A6914
S2144006303B689A42E5D3002311E04FF4FA400B4B57
S21440064098473B689AB2F97A7B686920084CA0477D
S2144006500346002BF1D1002301E04FF0FF3318464C
S2144006601C37BD4690BD00BFF9384000252A4000E3
S214400670792F400090B585B000AF78600023FB60CE
S21440068023490320234B9847234A79682348244B21
S2144006909847F86000212148224B98470246FB685D
S2144006A01343FB60FB68002B05D01F490120194B04
S2144006B09847FB6827E01D490320164B984707F1EB
S2144006C00B03194615481A4B9847F860FB68002BF1
S2144006D005D0184901200F4B9847FB6813E0FB7A7A
S2144006E0422B09D0FB7A1A46422313490120094C73
S2144006F0A0474FF0FF3306E0104B00221A800F4B06
S21440070000225A80FB6818461437BD4690BD00BF8D
S21440071048C34000AD56400045084000B82F002072
S214400720010A40000D1E40005CC3400088C34000E4
S2144007306D0C4000A4C34000D8C34000884400204D
S21440074090B585B000AF0446084611461A46234683
S214400750FB710346BB710B467B7113463B7100230E
S214400760FB6097F8243019462648274B98470246A0
S214400770FB681343FB60BB7919462248234B9847D6
S2144007800246FB681343FB607B7919461D48204BA5
S21440079098470246FB681343FB603B791946194865
S2144007A01C4B98470246FB681343FB6097F8203083
S2144007B019461448184B98470246FB681343FB609B
S2144007C0FB79002B07D00F48144B98470246FB682E
S2144007D01343FB6006E00B48114B98470246FB6804
S2144007E01343FB6007480F4B98470246FB6813438A
S2144007F0FB604EF660200C4B9847FB681846143753
S214400800BD4690BDB82F0020851D4000BD1C400051
S214400810211D4000B91B4000591C4000A90F400054
S214400820FD0C400089114000ED04400080B500AF4B
S2144008300248034B98470346184680BDB82F002011
S21440084089194000F0B58DB006AF78600020594B4E
S21440085098470346FB7597F91730732B40F0A580F1
S2144008604FF000034FF00004C7E90234524B98475C
S214400870524B5A88514B1B889A4211D04F4B1B887B
S21440088003F03F034D4A0133DB001344D3E9003401
S214400890C7E90234494B1B8801339AB2474B1A804A
S2144008A0474B98477B68B3F9063013F5004F30D076
S2144008B07B68B3F90C3013F5004F2AD0D7E90234E1
S2144008C01E467B68B3F906309E467B68B3F908300F
S2144008D01A467B68B3F90A3019467B68B3F912307A
S2144008E018467B68B3F90C301C467B68B3F90E306B
S2144008F01D467B68B3F91030059304950394029027
S21440090001910092734632462E4903202E4CA04752
S2144009104CE07B68B3F90C3013F5004F1BD0D7E999
S214400920023418467B68B3F912301C467B68B3F92C
S2144009300C301A467B68B3F90E3019467B68B3F91B
S2144009401030029301910092234602461F4903202D
S2144009501D4CA0472AE07B68B3F9063013F5004FDC
S2144009601BD0D7E9023418467B68B3F906301C46DC
S2144009707B68B3F908301A467B68B3F90A301946E3
S2144009807B68B3F9123002930191009223460246E7
S2144009900F4903200C4CA04708E0D7E902341A461A
S2144009A00C490320084B984700E000BF1C37BD4663
S2144009B0F0BD00BF59554000112940008844002032
S2144009C03929400018C44000AD56400030C44000AD
S2144009D048C4400060C4400090B583B000AF786023
S2144009E00B46FB70FB1C012276217868034CA0471F
S2144009F0034618460C37BD4690BD00BF55264000FE
S214400A00B0B586B000AFF860B9607A6000237B610D
S214400A104FF408620021F868224B9847FA68BB6892
S214400A2014461D460FCD0FC495E8070084E807001E
S214400A3040F6B8301C4B9847F8681C4B984702461F
S214400A407B6913437B617B69002B01D07B6925E082
S214400A50FB687A685A62F868154B984702467B6985
S214400A6013437B61FB6803F658024FF0FF334FF0A9
S214400A700004C2E90034FB6803F506624FF0FF331A
S214400A804FF00004C2E90034FB6803F678024FF0EA
S214400A90FF334FF00004C2E900347B69184618372C
S214400AA0BD46B0BD5D884000ED0440000D204000CE
S214400AB00521400090B585B000AF78600023FB600C
S214400AC001217868644B98470246FB681343FB60F5
S214400AD007F10A0301227A217868604CA047024653
S214400AE0FB681343FB6007F1090301227C21786809
S214400AF05A4CA0470246FB681343FB6000217868C7
S214400B00554B98470246FB681343FB600123FB7234
S214400B1007F10B03012211217868514CA047024689
S214400B20FB681343FB60FB68002B01D0FB688EE03C
S214400B304FF47A704B4B984701217868464B98475C
S214400B400246FB681343FB6007F10A0301227A2141
S214400B507868434CA0470246FB681343FB6000217D
S214400B6078683D4B98470246FB681343FB6007F1A5
S214400B700B0301222D217868384CA0470246FB68BB
S214400B801343FB60FB7A03F01003002B02D16FF097
S214400B900B035CE07868344B9847012178682E4B0D
S214400BA098470246FB681343FB6007F1090301229E
S214400BB07C2178682A4CA0470246FB681343FB60BA
S214400BC007F10B0301227B217868244CA04702469C
S214400BD0FB681343FB60FB7A23F00603DBB2FB7231
S214400BE0FB7A43F00203DBB2FB7207F10B030122F0
S214400BF07B2178681A4CA0470246FB681343FB608B
S214400C0000217868144B98470246FB681343FB6004
S214400C1007F10B0301224C217868104CA04702468E
S214400C20FB681343FB60FB7A03F01003DAB27B6881
S214400C3083F868287B681B7E022B07D17B68DB68BD
S214400C40786898470246FB681343FB60FB68184683
S214400C501437BD4690BD00BFD909400089254000E5
S214400C6055264000ED044000C124400090B583B0B6
S214400C7000AF786039603B68012275217868034C84
S214400C80A047034618460C37BD4690BD8925400010
S214400C9090B585B000AF78600B46FB700023FB60D4
S214400CA007F10B0301224D217868124CA0470246FB
S214400CB0FB681343FB60FB78002B05D1FB7A23F0DF
S214400CC00803DBB2FB7204E0FB7A43F00803DBB2B6
S214400CD0FB7207F10B0301224D217868064CA047B2
S214400CE00246FB681343FB60FB6818461437BD4654
S214400CF090BD00BF892540005526400090B589B07C
S214400D0000AF78600023FB610023BB6107F111034D
S214400D1001224E2178689E4CA0470246FB69134349
S214400D20FB617B7C03F00303FB757B7C03F00C03C9
S214400D30BB75FB7D022B21D0BB7D002B02D0BB7D3B
S214400D40042B1BD107F11003012250217868904CE8
S214400D50A0470246FB691343FB613B7C03F00F034D
S214400D607B757B7D18468B4B9847B8610821786821
S214400D70894B98470246FB691343FB61FB7D002B7A
S214400D8043D1BB7D002B40D17B6893F86A38002B5B
S214400D9029D007F1120301225F2178687C4CA047D6
S214400DA00246FB691343FB61BB7C43F00103DBB2A5
S214400DB0BB74BB7C43F00203DBB2BB747B6893F826
S214400DC06938002B04D0BB7C43F01003DBB2BB7405
S214400DD007F1120301225F217868704CA047024653
S214400DE0FB691343FB6107F10F0301224C2178682E
S214400DF0674CA0470246FB691343FB61FB7B03F04D
S214400E001003DAB27B6883F8682807F112030122E0
S214400E10522178685E4CA0470246FB691343FB614B
S214400E20BB7C03F00F03DBB2BB747B6893F872287D
S214400E30BB7C1343DBB2BB7407F112030122522181
S214400E407868564CA0470246FB691343FB6107F19E
S214400E50110301224E2178684D4CA0470246FB699B
S214400E601343FB617B7C23F00303DBB27B747B7C08
S214400E7043F00203DBB27B7407F1110301224E21DB
S214400E807868464CA0470246FB691343FB61C8207E
S214400E90434B9847FB7D022B15D0BB7D002B02D0E1
S214400EA0BB7D042B0FD1BB69C82B04D9BB69C83B9B
S214400EB018463B4B984700217868374B9847024680
S214400EC0FB691343FB61FB7D022B47D07B68D3F85D
S214400ED06C38072B42D907F110030122502178685D
S214400EE02B4CA0470246FB691343FB613B7C03F057
S214400EF00F033B753B7D0E2B01D00E2300E00D23E8
S214400F00FB743B7C23F00F03DBB23B743A7CFB7CE8
S214400F101343DBB23B7407F110030122502178687B
S214400F201E4CA0470246FB691343FB61C8201C4B7E
S214400F3098473B7C23F00F03DBB23B743A7C3B7D07
S214400F401343DBB23B7407F110030122502178684B
S214400F50124CA0470246FB691343FB617B680022A4
S214400F60C3F86C28FB7D002B0DD17B6893F86A385C
S214400F70002B08D00B4B984703460C467A6802F580
S214400F800662C2E90034FB6918462437BD4690BD68
S214400F9089254000011B4000910C4000552640002A
S214400FA0ED044000D504400090B587B000AF7860AF
S214400FB000237B6107F10A0301224E2178686C4CBE
S214400FC0A04702467B6913437B61BB7A03F0030369
S214400FD0FB74BB7A03F00C03BB74FB7C022B24D15E
S214400FE0BB7C002B02D0BB7C042B1ED107F109032F
S214400FF00122502178685E4CA04702467B69134325
S2144010007B617B7A03F00F037B747B7C1846594BDD
S2144010109847F86008217868574B984702467B699E
S21440102013437B61F868554B9847FB7C002B43D1B4
S214401030BB7C002B40D17B6893F86A38002B29D0C4
S21440104007F10B0301225F217868494CA04702460E
S2144010507B6913437B61FB7A43F00103DBB2FB728F
S214401060FB7A43F00203DBB2FB727B6893F8693885
S214401070002B04D0FB7A43F01003DBB2FB7207F17F
S2144010800B0301225F2178683D4CA04702467B69EE
S21440109013437B6107F1080301224C217868344CE6
S2144010A0A04702467B6913437B613B7A03F01003FB
S2144010B0DAB27B6883F8682807F10B0301225221D5
S2144010C078682B4CA04702467B6913437B61FB7ACA
S2144010D003F00F03DBB2FB727B6893F87428FB7A4D
S2144010E01343DBB2FB7207F10B03012252217868EF
S2144010F0234CA04702467B6913437B6107F10A03F2
S21440110001224E2178681A4CA04702467B69134359
S2144011107B61BB7A23F00303DBB2BB72BB7A43F03E
S2144011200303DBB2BB7207F10A0301224E21786843
S214401130134CA04702467B6913437B61C8200F4B84
S2144011409847FB7C002B0DD17B6893F86A38002BC0
S21440115008D00C4B984703460C467A6802F5066260
S214401160C2E900347B6918461C37BD4690BD00BFB7
S21440117089254000011B4000910C4000ED044000D2
S21440118055264000D504400090B58BB000AF78603F
S21440119000237B627B6803F67803D3E90034002C97
S2144011A008BFB3F1FF3F2AD0834B9847C7E90601F3
S2144011B07B6803F67803D3E90012D7E90634A242E7
S2144011C008BF994207D3D7E9063413F1FF3344F1F9
S2144011D00004C7E906347B6803F67803D3E9003495
S2144011E0D7E90612CB1A62EB040474494FF00002AA
S2144011F0A24208BF994202D36FF00903D8E007F134
S2144012000E0301224E2178686D4CA04702467B6A49
S21440121013437B62BB7B03F00C03FB75BB7B03F085
S2144012200303BB75BB7D022B24D1FB7D002B02D074
S214401230FB7D042B1ED107F10D0301225021786857
S2144012405F4CA04702467B6A13437B627B7B03F07E
S2144012500F037B757B7D18465A4B984738610821AB
S2144012607868594B984702467B6A13437B623869D5
S214401270564B9847BB7D002B43D1FB7D002B40D17E
S2144012807B6893F86A38002B29D007F10F030122B8
S2144012905F2178684A4CA04702467B6A13437B62CC
S2144012A0FB7B43F00103DBB2FB73FB7B43F00203A3
S2144012B0DBB2FB737B6893F86938002B04D0FB7B6A
S2144012C043F01003DBB2FB7307F10F0301225F21EB
S2144012D078683F4CA04702467B6A13437B6207F11F
S2144012E00C0301224C217868354CA04702467B6AA5
S2144012F013437B623B7B03F01003DAB27B6883F8D0
S214401300682807F10F030122522178682C4CA04729
S21440131002467B6A13437B62FB7B23F00F03DBB200
S214401320FB737B6893F87528FB7B1343DBB2FB7338
S21440133007F10F03012252217868254CA047024648
S2144013407B6A13437B6207F10E0301224E217868C5
S2144013501B4CA04702467B6A13437B62BB7B23F051
S2144013600C03DBB2BB73BB7B43F00C03DBB2BB733B
S21440137007F10E0301224E217868154CA04702461D
S2144013807B6A13437B62C820104B9847FB7D002B3B
S2144013900DD17B6893F86A38002B08D0064B9847E7
S2144013A003460C467A6802F65802C2E900347B6A65
S2144013B018462C37BD4690BDD5044000F049020083
S2144013C089254000011B4000910C4000ED04400080
S2144013D05526400090B585B000AF78600B46FB7050
S2144013E00023FB6007F10B03012254217868104C60
S2144013F0A0470246FB681343FB60FB7A23F00803D2
S214401400DBB2FB72FA7AFB781343DBB2FB7207F16E
S2144014100B03012254217868064CA0470246FB681D
S2144014201343FB60FB6818461437BD4690BD00BFAB
S214401430892540005526400090B585B000AF7860BD
S21440144039600023FB6007F1080300210A461A8032
S2144014500A469A7007F10803022265217868434CD1
S214401460A0470246FB681343FB6004217868404B64
S21440147098470246FB681343FB6007F108030233B4
S21440148001224D217868394CA0470246FB68134339
S214401490FB6000217868364B98470246FB6813434A
S2144014A0FB603B7A9B1103F00103DAB23B681A708B
S2144014B03B7ADB1003F00103DAB23B685A703B7AA2
S2144014C09B1003F00103DAB23B689A703B7A5B10DC
S2144014D003F00103DAB23B68DA707B7ADB1003F084
S2144014E00103DAB23B681A717B7A03F00103DAB281
S2144014F03B685A717B7A5B1003F00103DAB23B68B3
S2144015009A717B7A9B1003F00103DAB23B68DA717A
S214401510BB7A5B1103F00103DAB23B681A72BB7AFE
S2144015201B1103F00103DAB23B685A72BB7ADB1038
S21440153003F00103DAB23B689A72BB7A5B1003F0A1
S2144015400103DAB23B68DA72BB7A9B1003F0010300
S214401550DAB23B681A73BB7A03F00103DAB23B682F
S2144015605A73FB6818461437BD4690BD892540001F
S214401570D909400090B585B000AF78603960002347
S214401580FB6007F1080300210A461A800A469A7053
S214401590042178686A4B98470246FB681343FB6011
S2144015A007F1080303224F217868664CA04702469D
S2144015B0FB681343FB603B7A23F02E03DBB23B729F
S2144015C03B7A5AB23B681B78002B01D0202300E0C0
S2144015D0002313435BB2DBB23B723B7A5AB23B68A2
S2144015E05B78002B01D0082300E0002313435BB256
S2144015F0DBB23B723B7A5AB23B689B78002B01D0F9
S214401600042300E0002313435BB2DBB23B723B7A19
S2144016105AB23B68DB78002B01D0022300E000235F
S21440162013435BB2DBB23B727B7A23F01E03DBB222
S2144016307B727B7A5AB23B681B79002B01D0102311
S21440164000E0002313435BB2DBB27B727B7A5AB274
S2144016503B685B79002B01D0022300E00023134354
S2144016605BB2DBB27B727B7A5AB23B689B79002BCB
S21440167001D0042300E0002313435BB2DBB27B724D
S2144016807B7A5AB23B68DB79002B01D0082300E016
S214401690002313435BB2DBB27B72BB7A23F0390381
S2144016A0DBB2BB72BB7A5AB23B681B7A002B01D0C6
S2144016B0202300E0002313435BB2DBB2BB72BB7A4D
S2144016C05AB23B685B7A002B01D0102300E000231F
S2144016D013435BB2DBB2BB72BB7A5AB23B689B7AAF
S2144016E0002B01D0082300E0002313435BB2DBB29B
S2144016F0BB72BB7A5AB23B685B7B002B14BF01239C
S2144017000023DBB25BB213435BB2DBB2BB7207F1C2
S214401710080303224F2178680B4CA0470246FB681B
S2144017201343FB6000217868054B98470246FB68E8
S2144017301343FB60FB6818461437BD4690BD00BF98
S214401740D9094000892540005526400090B585B00F
S21440175000AF786039600023FB6007F10803002182
S2144017600A461A800A469A7007F108030222652143
S2144017707868824CA0470246FB681343FB6004210E
S21440178078687F4B98470246FB681343FB6007F137
S2144017900803023301224D217868784CA047024660
S2144017A0FB681343FB603B7A23F04E03DBB23B728D
S2144017B03B7A5AB23B681B78002B01D0402300E0AE
S2144017C0002313435BB2DBB23B723B7A5AB23B68B0
S2144017D05B78002B01D0082300E0002313435BB264
S2144017E0DBB23B723B7A5AB23B689B78002B01D007
S2144017F0042300E0002313435BB2DBB23B723B7A28
S2144018005AB23B68DB78002B01D0022300E000236D
S21440181013435BB2DBB23B727B7A23F00F03DBB23F
S2144018207B727B7A5AB23B681B79002B01D0082327
S21440183000E0002313435BB2DBB27B727B7A5AB282
S2144018403B685B79002B14BF01230023DBB25BB2FD
S21440185013435BB2DBB27B727B7A5AB23B689B79AE
S214401860002B01D0022300E0002313435BB2DBB21F
S2144018707B727B7A5AB23B68DB79002B01D004231B
S21440188000E0002313435BB2DBB27B72BB7A23F0EB
S2144018903F03DBB2BB72BB7A5AB23B681B7A002B63
S2144018A001D0202300E0002313435BB2DBB2BB72BF
S2144018B0BB7A5AB23B685B7A002B01D0102300E01B
S2144018C0002313435BB2DBB2BB72BB7A5AB23B68AF
S2144018D09B7A002B01D0082300E0002313435BB221
S2144018E0DBB2BB72BB7A5AB23B68DB7A002B01D0C4
S2144018F0022300E0002313435BB2DBB2BB72BB7A29
S2144019005AB23B681B7B002B01D0042300E0002327
S21440191013435BB2DBB2BB72BB7A5AB23B685B7BAB
S214401920002B14BF01230023DBB25BB213435BB230
S214401930DBB2BB7207F10803023301224D217868FF
S214401940104CA0470246FB681343FB6000217868B2
S2144019500B4B98470246FB681343FB6007F10803AE
S214401960022265217868074CA0470246FB6813436D
S214401970FB60FB6818461437BD4690BD892540007D
S214401980D90940005526400090B591B000AF786028
S2144019900023FB6307F13B0301222D217868554C59
S2144019A0A0470246FB6B1343FB63FB6B002B01D047
S2144019B0FB6B9BE097F83B3003F00803002B00F0EE
S2144019C0948007F1380302221D217868494CA047CD
S2144019D0F8637B6893F8680807F10C0303F112027A
S2144019E007F138031946444B984707F1300306225F
S2144019F01F2178683F4CA0470246FB6B1343FB63AE
S214401A007B6893F8680807F10C039A1D07F13003CA
S214401A101946394B98477B6893F8680807F10C03DA
S214401A2003F1080207F1300302331946324B984758
S214401A307B6893F8680807F10C0303F10A0207F184
S214401A403003043319462C4B984707F128030622E7
S214401A5025217868274CA0470246FB6B1343FB635F
S214401A607B6893F8680807F10C0303F10C0207F152
S214401A7028031946204B98477B6893F8680807F177
S214401A800C0303F10E0207F12803023319461A4BE2
S214401A9098477B6893F8680807F10C0303F1100237
S214401AA007F1280304331946134B98477B685B6A53
S214401AB0002B05D07B685B6A07F10C0210469847FE
S214401AC07B681B7E002B03D07B681B7E022B0CD1D1
S214401AD00023FB7207F10B03012275217868074C3F
S214401AE0A0470246FB6B1343FB63FB6B1846443729
S214401AF0BD4690BD892540006924400055264000DB
S214401B0080B483B000AF78607B68013B0E2B44D82E
S214401B1001A252F823F000BF551B4000591B40005D
S214401B205D1B4000611B4000651B40006B1B400076
S214401B30771B40007D1B4000831B4000891B4000F4
S214401B408F1B4000931B4000971B40009B1B400090
S214401B50711B4000202321E03F231FE07D231DE032
S214401B60FA231BE04FF4FA7318E04FF47A7315E04B
S214401B704FF4FA6312E041F288330FE042F21073FA
S214401B800CE044F6206309E049F6404306E0064B85
S214401B9004E0064B02E0064B00E0064B18460C37C6
S214401BA0BD465DF8047B7047803801000071020036
S214401BB000E2040000C4090090B585B000AF78602C
S214401BC00B46FB700023FB6007F1090301224E2100
S214401BD078681F4CA0470246FB681343FB607B7A3D
S214401BE003F00303FB72FB7A022B07D07B68D3F823
S214401BF06C385A1C7B68C3F86C2803E07B6800226C
S214401C00C3F86C2807F10A03012250217868104C6B
S214401C10A0470246FB681343FB60BB7A23F00F03E2
S214401C20DBB2BB72BA7AFB781343DBB2BB7207F106
S214401C300A03012250217868064CA0470246FB68FA
S214401C401343FB60FB6818461437BD4690BD00BF83
S214401C50892540005526400090B585B000AF786095
S214401C600B46FB700023FB6007F10B0301224F215C
S214401C707868104CA0470246FB681343FB60FB7A2B
S214401C8023F00F03DBB2FB72FA7AFB781343DBB226
S214401C90FB7207F10B0301224F217868064CA047E0
S214401CA00246FB681343FB60FB6818461437BD4684
S214401CB090BD00BF892540005526400090B585B0B0
S214401CC000AF78600B46FB700023FB6007F10B0308
S214401CD0012250217868104CA0470246FB68134307
S214401CE0FB60FB7A03F01F03DBB2FB72FA7AFB78E9
S214401CF01343DBB2FB7207F10B03012250217868D5
S214401D00064CA0470246FB681343FB60FB68184638
S214401D101437BD4690BD00BF89254000552640007B
S214401D2090B585B000AF78600B46FB700023FB6033
S214401D3007F10B0301224F217868104CA04702465A
S214401D40FB681343FB60FB7A03F01F03DBB2FB72B6
S214401D50FA7AFB781343DBB2FB7207F10B030122DE
S214401D604F217868064CA0470246FB681343FB6049
S214401D70FB6818461437BD4690BD00BF8925400015
S214401D805526400090B585B000AF78600B46FB7096
S214401D900023FB60FB78002B02D04FF0FF331DE0A2
S214401DA007F10B0301224D2178680E4CA0470246EE
S214401DB0FB681343FB60FB7A23F00403DBB2FB7241
S214401DC0FB7AFB7207F10B0301224D217868064C23
S214401DD0A0470246FB681343FB60FB68184614376F
S214401DE0BD4690BD892540005526400080B483B04E
S214401DF000AF78607B68002283F869280023184685
S214401E000C37BD465DF8047B7047000090B589B03E
S214401E1000AF78600B46FB700023FB6107F10C03B4
S214401E2000221A605A609A609A817B68FA7883F832
S214401E306A28FB78002B00F09480012B40F0D58078
S214401E4007F11B0301224C2178686C4CA0470246E0
S214401E50FB691343FB61FB7E43F04003DBB2FB763A
S214401E60FB7E23F02003DBB2FB7607F11B03012247
S214401E704C217868624CA0470246FB691343FB61DD
S214401E808023FB7607F11B030122162178685C4C01
S214401E90A0470246FB691343FB6107F11B0301227F
S214401EA054217868554CA0470246FB691343FB61B2
S214401EB0FB7E43F00103DBB2FB7607F11B030122F6
S214401EC0542178684E4CA0470246FB691343FB6199
S214401ED007F11B0301225F217868484CA047024661
S214401EE0FB691343FB61FB7E23F00303DBB2FB7607
S214401EF0FB7E43F00C03DBB2FB76FB7E43F0200315
S214401F00DBB2FB7607F11B0301225F2178683C4C6D
S214401F10A0470246FB691343FB610123FB7607F1AA
S214401F201B03012260217868354CA0470246FB69B6
S214401F301343FB6107F10C0319467868314B984709
S214401F400246FB691343FB6100237B7307F10C03D6
S214401F50194678682C4B98470246FB691343FB6149
S214401F6046E00023FB7607F11B0301221621786822
S214401F70234CA0470246FB691343FB6107F11B0352
S214401F8001225F2178681D4CA0470246FB69134337
S214401F90FB61FB7E23F00303DBB2FB76FB7E43F064
S214401FA00C03DBB2FB7607F11B0301225F21786846
S214401FB0134CA0470246FB691343FB6107F10C0331
S214401FC0194678680F4B98470246FB691343FB61F6
S214401FD001237B7307F10C03194678680A4B984730
S214401FE00246FB691343FB6102E04FF0FF33FB619F
S214401FF0FB6918462437BD4690BD00BF8925400082
S21440200055264000391440004D17400090B585B025
S21440201000AF78600023FB6001217868364B984714
S2144020200246FB681343FB607B681B7E012B43D054
S214402030022B1DD0002B4DD107F10B0301227C2132
S21440204078682E4CA0470246FB681343FB60FB7A39
S21440205023F00303DBB2FB7207F10B0301227C2162
S2144020607868274CA0470246FB681343FB6035E080
S21440207007F10B0301227C217868204CA0470246DA
S214402080FB681343FB60FB7A43F00C03DBB2FB7246
S21440209007F10B0301227C217868194CA0470246C1
S2144020A0FB681343FB607B68DB68786898470246AA
S2144020B0FB681343FB6011E00223FB7207F10B033E
S2144020C001227A2178680E4CA0470246FB681343EB
S2144020D0FB6003E0FB6863F00A03FB60002178685E
S2144020E0054B98470246FB681343FB60FB6818465F
S2144020F01437BD4690BD00BFD90940008925400031
S2144021005526400090B58BB000AF786000237B62C8
S214402110B44B07F10C040FCB07C423807868B24B4E
S214402120984702467B6A13437B6207F11F030122EE
S2144021304F217868AD4CA04702467B6A13437B62CA
S21440214007F11E03012250217868A84CA04702469A
S2144021507B6A13437B62FB7F03F01F03DBB2FB7794
S214402160FB7FFB77BB7F03F01F03DBB2BB77BB7FF6
S21440217043F04003DBB2BB7707F11F0301224F2138
S21440218078689B4CA04702467B6A13437B6207F104
S2144021901E03012250217868954CA04702467B6A70
S2144021A013437B62002387F8233007F12303012281
S2144021B0162178688E4CA04702467B6A13437B62A2
S2144021C007F12303012262217868884CA047024623
S2144021D07B6A13437B6297F8233023F07003DBB2AD
S2144021E087F8233007F12303012262217868804C68
S2144021F0A04702467B6A13437B6207F11D03012218
S21440220054217868794CA04702467B6A13437B6228
S2144022107B7F23F00203DBB27B7707F11D030122AD
S21440222054217868724CA04702467B6A13437B620F
S214402230082178686F4B984702467B6A13437B6257
S214402240012178686C4B984702467B6A13437B6251
S21440225007F12303012214217868644CA047024604
S2144022607B6A13437B6297F8233043F00203DBB26A
S21440227087F8233097F8233043F00103DBB287F822
S214402280233007F12303012214217868584CA047D5
S21440229002467B6A13437B6207F10C031946786853
S2144022A0564B984702467B6A13437B6201237B73F7
S2144022B00023BB7307F10C0319467868504B9847C8
S2144022C002467B6A13437B6207F1230301226421A3
S2144022D07868464CA04702467B6A13437B6297F871
S2144022E0233023F01003DBB287F8233097F82330EF
S2144022F087F8233007F123030122642178683C4C99
S214402300A04702467B6A13437B6207F12303012200
S21440231051217868354CA04702467B6A13437B625E
S21440232097F8233023F00C03DBB287F8233097F876
S214402330233043F00403DBB287F8233007F123034E
S2144023400122512178682A4CA04702467B6A1343F3
S2144023507B6207F12303012253217868234CA04770
S21440236002467B6A13437B6297F8233023F01803B8
S214402370DBB287F8233097F8233043F00803DBB20C
S21440238087F8233007F12303012253217868184C3D
S214402390A04702467B6A13437B627868194B98478E
S2144023A002467B6A13437B6204217868164B984743
S2144023B002467B6A13437B620D2387F820300D2349
S2144023C087F821300D2387F8223007F120030322B7
S2144023D04A217868064CA04702467B6A13437B62D4
S2144023E0002113E080C44000B50A40008925400023
S2144023F055264000D51340000D1E40004D174000A6
S21440240075154000ED1D4000D90940007868144B12
S214402410984702467B6A13437B620C2387F8233037
S21440242007F123030122572178680E4CA047024645
S2144024307B6A13437B627B68102283F874287B6830
S214402440012283F875287B68602283F872287B68AF
S21440245000221A647B6A18462C37BD4690BD00BFE2
S214402460D90940005526400080B485B000AF0346E9
S214402470B9607A60FB73FB7B102B0DD1BB681B7871
S2144024801B021AB2BB6801331B781BB213431BB244
S2144024909AB27B681A800CE0BB6801331B781B023B
S2144024A01AB2BB681B781BB213431BB29AB27B6846
S2144024B01A8000BF1437BD465DF8047B70470000A5
S2144024C090B585B000AF78600023FB607B68BB604A
S2144024D0B8682C4B98470346002B40D1BB685C68D5
S2144024E0B868BB6803F11C0201234D21A047024691
S2144024F0FB681343FB60BB685C68B868BB6803F165
S2144025001D0201234E21A0470246FB681343FB6091
S214402510BB685C68B868BB6803F11E0201234F21A4
S214402520A0470246FB681343FB60BB685C68B8681C
S214402530BB6803F11F0201235021A0470246FB68F7
S2144025401343FB60BB685C68B868BB6803F1200255
S21440255001235421A0470246FB681343FB60BB6837
S2144025605C68B868BB6803F1210201237621A04766
S2144025700246FB681343FB60FB6818461437BD46AB
S21440258090BD00BF81274000B0B588B000AFF8606E
S2144025907A603B600B46FB72FB68BB610023FB61C5
S2144025A0BB6993F82130002B2AD1B869274B98474E
S2144025B00346002B24D10023FB6115E0FB69DAB209
S2144025C0FB7A1344DBB21946F868214B984778618A
S2144025D07B69002B0DD03A68FB6913447A69127800
S2144025E01A70FB690133FB61FA697B689A42E5D34E
S2144025F000E000BFFA697B689A4201D1002320E0E0
S2144026007A68FB69D21ABB691B699A4202D96FF095
S214402610040316E0BB695C68B869FB69DAB2FB7A0A
S2144026201344D9B23A68FB69D5187A68FB69D31A5D
S2144026302A46A0470346002B02D06FF0020300E074
S214402640002318462037BD46B0BD00BF8127400056
S2144026501527400090B589B000AFF8607A603B60BF
S2144026600B46FB72FB68BB61BB695A697B689A4242
S21440267002D26FF0040345E00023FB6130E0FA7AB3
S214402680FB691344762B07D13A68FB6913441A78E2
S214402690BB6983F8212020E0FB69DAB2FB7A134459
S2144026A0DBB21946F868194B984778617B69002B6E
S2144026B013D0BB6993F82130002B0ED1B869144B68
S2144026C098470346012B02D16FF00A031AE03A6896
S2144026D0FB6913441A787B691A70FB690133FB6106
S2144026E0FA697B689A42CAD3BB699C68B869F97A2A
S2144026F07B683A68A0470346002B02D06FF002037F
S21440270000E0002318462437BD4690BD15274000FC
S2144027108127400080B485B000AF78600B46FB70E0
S2144027207B68FB60FB784D3B072B22D801A252F812
S21440273023F000BF552740005B274000612740003C
S21440274067274000732740007327400073274000E8
S2144027506D274000FB681C330CE0FB681D3309E026
S214402760FB681E3306E0FB681F3303E0FB6820333C
S21440277000E0002318461437BD465DF8047B7047DA
S21440278080B483B000AF78607B681B7E032B03D099
S2144027907B681B7E042B01D1012300E000231846F2
S2144027A00C37BD465DF8047B7047000080B582B0AC
S2144027B000AF78607868034B984700BF0837BD463F
S2144027C080BD00BFE966400080B500AF0B20034BDC
S2144027D098470C20014B984700BF80BDAD2740006E
S2144027E080B48DB000AF78600B46FB707B68FB62B0
S2144027F0FB7887F82B30FB6A7B627B6A3B623B6ADE
S2144028005B09FB61FB6903F5001303F207735B0288
S214402810BB6197F82B30012B09D1FB6A7B617B6942
S21440282003F01F0301229A40BB691A610CE097F837
S2144028302B30002B08D1FB6A3B613B6903F01F033A
S21440284001229A40BB695A61FB6AFB60FB6803F051
S2144028501F0301229A40BB69C3F8A02000BF34374B
S214402860BD465DF8047B704780B48BB000AF78609F
S2144028700B46FB707B687B62FB7887F823307B6A6D
S214402880FB61FB69BB61BB695B097B617B6903F5E7
S214402890001303F207735B023B6197F82330002B6B
S2144028A009D07B6AFB60FB6803F01F0301229A4055
S2144028B03B691A6308E07B6ABB60BB6803F01F0392
S2144028C001229A403B695A6300BF2C37BD465DF8EB
S2144028D0047B704780B500AF084B9847084B984735
S2144028E001210620074B984701210620064B9847B2
S2144028F0064B4FF400425A6000BF80BDE959400085
S214402900C9274000E12740006928400050140E4087
S21440291080B400AF074B1B68002B00D172B6054B46
S2144029201B680133034A136000BFBD465DF8047B55
S214402930704700BF3838002080B400AF074B1B6894
S214402940013B064A1360054B1B68002B00D162B65C
S21440295000BFBD465DF8047B704700BF3838002096
S21440296080B500AF034B1B681846034B984700BF23
S21440297080BD00BF3C380020CD3E400080B500AF53
S214402980034B1B6800211846024B984700BF80BD8A
S2144029903C3800208D42400090B587B000AF0346DB
S2144029A0FB80134B1B681846124B984703460C4651
S2144029B0FB6000233B610E4B1B6818460D4B984747
S2144029C003460C467B617A693B699A4204D27B692E
S2144029D003F57F43FF337B617B693B617A69FB6824
S2144029E0D21AFB889A42E6D900BF1C37BD4690BD36
S2144029F03C3800205941400080B582B000AF786036
S214402A00054A7B6813600548054B984703461846B9
S214402A100837BD4680BD00BF3C38002040420F000E
S214402A204D3F400080B584B000AF7860184B984763
S214402A307B684FF6FE7293421FD90023FB6006E088
S214402A404FF6FF70134B9847FB680133FB607B687B
S214402A50114AA2FB0323DA0BFB689A42F0D8796846
S214402A600D4BA3FB0123DA0B13461B049B1ACA1A11
S214402A7093B21846074B984704E07B689BB21846CB
S214402A80044B9847054B984700BF1037BD4680BD5E
S214402A906129400099294000018000807D2940003E
S214402AA0B0B586B002AFF860B9607A60FB68052BB7
S214402AB000F29C804F49FA681346DB0013449B00A3
S214402AC00B441C33BA681A604A49FA681346DB005E
S214402AD013449B000B4420337A681A604549FA68D1
S214402AE01346DB0013449B000B4404331B68184614
S214402AF0414B98473F49FA681346DB0013449B0016
S214402B000B4418683B49FA681346DB0013449B00A5
S214402B100B4410331C683749FA681346DB001344ED
S214402B209B000B440C331D683249FA681346DB00A1
S214402B3013449B000B4414331B682A4621462F4CF3
S214402B40A0472C49FA681346DB0013449B000B440D
S214402B5018682849FA681346DB0013449B000B4468
S214402B6004331C682349FA681346DB0013449B0071
S214402B700B440C331D681F49FA681346DB001344A8
S214402B809B000B4414331A681D4B009313462A4689
S214402B9021461C4CA0471749FA681346DB001344ED
S214402BA09B000B4418681349FA681346DB0013442D
S214402BB09B000B440C331B681946134B98470D4932
S214402BC0FA681346DB0013449B000B441868094917
S214402BD0FA681346DB0013449B000B44183393F902
S214402BE0003000221946094B984700E000BF1037D6
S214402BF0BD46B0BDF4000020E966400001604000DC
S214402C00112C4000396340002D61400009644000AB
S214402C1090B585B000AF786039600023FB603BE03C
S214402C202249FA681346DB0013449B000B440433E6
S214402C301A687B689A422CD11C49FA681346DB0016
S214402C4013449B000B440C331A683B689A4220D1CD
S214402C501649FA681346DB0013449B000B441C33AA
S214402C601B68002B1CD01149FA681346DB0013443E
S214402C709B000B441C331C680C49FA681346DB0067
S214402C8013449B000B4420331B68F9681846A04742
S214402C9006E0FB680133FB60FB68052BC0D900E00B
S214402CA000BF00BF1437BD4690BD00BFF4000020F3
S214402CB080B483B000AF78607B68072B25D801A22C
S214402CC052F823F0E52C4000EB2C4000F12C40005D
S214402CD0F72C4000FB2C4000FF2C4000032D40000A
S214402CE0072D40004FF4FA4310E04FF400430DE048
S214402CF04FF400430AE0084B08E0084B06E0084B58
S214402D0004E0002302E0002300E0002318460C37CE
S214402D10BD465DF8047B704700127A000024F4003C
S214402D2000366E0180B500AF0120044B984702463E
S214402D3040F64E6303FB02F3184680BDB12C4000BC
S214402D4080B500AF024B98470346184680BD00BF8B
S214402D50252D400080B489B000AF78607B68FB6169
S214402D60FB69BB61BB695A09FB697B617B6903F000
S214402D701F03012101FA03F33A61FB603B69BB6024
S214402D80BB6803F5001303F207735B021A46FB6841
S214402D90536000BF2437BD465DF8047B704780B45F
S214402DA08DB000AF786039607B68FB623B68BB6281
S214402DB0FB6A7B627B6A5A09FB6A3B623B6A03F0AA
S214402DC01F03012101FA03F3FA61BB61BB6A7B6111
S214402DD0FB693B613B6903F5001303F207735B0233
S214402DE0FB607B6903F00803002B03D0FB68BA69DD
S214402DF05A6602E0FB68BA691A667B6903F01003FC
S214402E00002B04D0FB68BA69C3F8942003E0FB6843
S214402E10BA69C3F890207B6903F02003002B03D0E7
S214402E20FB68BA691A6502E0FB68BA695A657B694D
S214402E3003F0C003002B03D0FB68BA691A6202E0B5
S214402E40FB68BA695A627B6903F08003002B04D0A2
S214402E50FB68BA69C3F8842003E0FB68BA69C3F824
S214402E6080207B6903F00103002B06D0FB681A6FB5
S214402E70BB691A43FB681A6706E0FB681A6FBB69B2
S214402E80DB431A40FB681A677B6903F00203002B9A
S214402E9006D0FB685A6FBB691A43FB685A6706E060
S214402EA0FB685A6FBB69DB431A40FB685A6700BF32
S214402EB03437BD465DF8047B7047000080B584B06B
S214402EC000AF254B1B78002B3FD13B1D0C22002129
S214402ED01846224B9847204B5A691F4B9B69194608
S214402EE010461F4B98471C4B5B6918461D4B98472E
S214402EF0194BDA68184B1B6919461046184B984709
S214402F00154BDB681846174B9847134B9B6818467B
S214402F10154B9847104B9B6803211846134B984710
S214402F20134B984703467B600B4BDB69BB600A4BF1
S214402F305B683A1D114618460E4B98470346002BD1
S214402F4005D1054B01221A7002E000BF00E000BF29
S214402F501037BD4680BD00BFCC0100205D884000D4
S214402F609F2D4000552D40009D5B4000055D400074
S214402F70412D4000B56C400080B588B000AF3B6046
S214402F800346FB710B46BB711346BB800023FB77A1
S214402F90FB793B76BB793B720123FB60BB88002BF9
S214402FA005D107F11F033B6101237B6103E03B68CA
S214402FB03B61BB887B61094B5B6807F108021146A1
S214402FC01846074B98470346002B02D04FF0FF3376
S214402FD000E0002318462037BD4680BDCC010020C7
S214402FE0756F400080B588B000AF3B600346FB710C
S214402FF00B46BB711346BB80FB793B77BB793B7373
S21440300001233B613B687B61BB88BB61094B5B68C6
S21440301007F10C0211461846074B98470346002B0B
S21440302002D04FF0FF3300E0002318462037BD465D
S21440303080BD00BFCC010020696E400080B582B0E4
S21440304000AF1048104B984778607B6803F0080341
S214403050002B12D008210B480C4B984708210948F2
S2144030600B4B9847082107480A4B98470A4B1B6862
S214403070002B02D0084B1B68984700BF0837BD4658
S21440308080BD00BF60140E404D684000316840006F
S21440309065684000156840004038002080B483B022
S2144030A000AF0346FB71094997F907305B09FA7987
S2144030B002F01F02012000FA02F2603341F823209A
S2144030C000BF0C37BD465DF8047B704700E100E06A
S2144030D080B483B000AF78607B6880221A6000BFFF
S2144030E00C37BD465DF8047B704780B483B000AFB4
S2144030F078607B6801221A6000BF0C37BD465DF8D9
S214403100047B704780B483B000AF78607B6802224F
S2144031101A6000BF0C37BD465DF8047B704780B42C
S21440312083B000AF78607B684FF080721A6000BF53
S2144031300C37BD465DF8047B704780B483B000AF63
S21440314078607B685B6843F001027B685A6000BF2A
S2144031500C37BD465DF8047B704780B483B000AF43
S21440316078607B685B6843F010027B685A6000BFFB
S2144031700C37BD465DF8047B704780B483B000AF23
S21440318078607B681B6918460C37BD465DF8047B43
S214403190704780B483B000AF786039607B683A6827
S2144031A05A6100BF0C37BD465DF8047B704780B45B
S2144031B083B000AF786039607B683A689A6100BF38
S2144031C00C37BD465DF8047B704780B483B000AFD3
S2144031D078607B6803F5807318460C37BD465DF80B
S2144031E0047B704780B483B000AF78607B68072B61
S2144031F025D801A252F823F0193240001F32400071
S214403200253240002B3240002F32400033324000FF
S214403210373240003B3240004FF4FA4310E04FF460
S21440322000430DE04FF400430AE0084B08E0084B2B
S21440323006E0084B04E0002302E0002300E0002301
S21440324018460C37BD465DF8047B704700127A007E
S2144032500024F40000366E0180B500AF0120044B18
S2144032609847024640F64E6303FB02F3184680BD7D
S214403270E531400080B500AF024B984703461846FC
S21440328080BD00BF5932400080B489B000AF78603E
S2144032907B68FB61FB69BB61BB695A09FB697B6163
S2144032A07B6903F01F03012101FA03F33A61FB60D7
S2144032B03B69BB60BB6803F5001303F207735B0210
S2144032C01A46FB68536000BF2437BD465DF8047B52
S2144032D0704780B48DB000AF786039607B68FB6221
S2144032E03B68BB62FB6A7B627B6A5A09FB6A3B624D
S2144032F03B6A03F01F03012101FA03F3FA61BB6145
S214403300BB6A7B61FB693B613B6903F5001303F2D3
S21440331007735B02FB607B6903F00803002B03D056
S214403320FB68BA695A6602E0FB68BA691A667B6946
S21440333003F01003002B04D0FB68BA69C3F894204E
S21440334003E0FB68BA69C3F890207B6903F020036A
S214403350002B03D0FB68BA691A6502E0FB68BA69BD
S2144033605A657B6903F0C003002B03D0FB68BA693B
S2144033701A6202E0FB68BA695A627B6903F080030E
S214403380002B04D0FB68BA69C3F8842003E0FB68CE
S214403390BA69C3F880207B6903F00103002B06D08E
S2144033A0FB681A6FBB691A43FB681A6706E0FB683E
S2144033B01A6FBB69DB431A40FB681A677B6903F0E8
S2144033C00203002B06D0FB685A6FBB691A43FB68A2
S2144033D05A6706E0FB685A6FBB69DB431A40FB68D6
S2144033E05A6700BF3437BD465DF8047B704700001F
S2144033F090B583B000AF78603A4A7B6841F28C0162
S21440340001FB03F3134404331B6840F202211846C1
S214403410354B9847334A7B6841F28C0101FB03F3F6
S214403420134403F583531C3393F9003018462F4B4F
S21440343098472C4A7B6841F28C0101FB03F3134406
S2144034401B681B6903F04003002B47D0254A7B6866
S21440345041F28C0101FB03F3134403F58453043318
S21440346018687B6841F28C0202FB03F303F65903AB
S2144034701C4A13441C1D1B4A7B6841F28C0101FB0D
S21440348003F3134403F5845308331B881A46214636
S214403490174B9847134A7B6841F28C0101FB03F3B4
S2144034A013441B6840211846124B98470D4A7B68C8
S2144034B041F28C0101FB03F3134403F584531B686C
S2144034C0002B0BD0074A7B6841F28C0101FB03F3CB
S2144034D0134403F584531B680020984700BF0C37FD
S2144034E0BD4690BDEC010020ED5D40009D304000A3
S2144034F061864000AF314000B0B582B000AF786022
S2144035003960B54A7B6841F28C0101FB03F31344F2
S2144035101C331868B04A7B6841F28C0101FB03F308
S214403520134420331B681946AC4B9847AA4A7B681D
S21440353041F28C0101FB03F3134424331868A64A76
S2144035407B6841F28C0101FB03F3134428331B686C
S2144035501946A24B9847A04A7B6841F28C0101FB72
S21440356003F313442C3318689B4A7B6841F28C0162
S21440357001FB03F3134430331B681946974B9847B7
S214403580954A7B6841F28C0101FB03F313443433C4
S2144035901868914A7B6841F28C0101FB03F313449F
S2144035A038331B6819468D4B98478B4A7B6841F2E7
S2144035B08C0101FB03F313441C331B681846884BED
S2144035C09847854A7B6841F28C0101FB03F313441C
S2144035D024331B681846824B98477F4A7B6841F2E3
S2144035E08C0101FB03F313442C331B6818467C4BB9
S2144035F09847794A7B6841F28C0101FB03F31344F8
S21440360034331B681846764B9847734A7B6841F2BA
S2144036108C0101FB03F313441B681846714B984713
S2144036206D4A7B6841F28C0101FB03F3134404337B
S2144036301860694A7B6841F28C0101FB03F313442E
S21440364008331B681846684B9847634A7B6841F2C4
S2144036508C0101FB03F3134408331B680221184610
S214403660624B98475C4A7B6841F28C0101FB03F34E
S21440367013441B6818465E4B9847574A7B6841F28E
S2144036808C0101FB03F313441B681846594B9847BB
S214403690514A7B6841F28C0101FB03F313441B68DB
S2144036A01846554B98474C4A7B6841F28C0101FBC3
S2144036B003F313441B681846504B9847464A7B68AA
S2144036C041F28C0101FB03F313441B6818464C4B34
S2144036D09847414A7B6841F28C0101FB03F313444F
S2144036E018683D4A7B6841F28C0101FB03F31344A2
S2144036F00C331B6800221946424B9847364A7B6873
S21440370041F28C0101FB03F313441868324A7B688C
S21440371041F28C0101FB03F313440C331B6819463A
S214403720394B98472C4A7B6841F28C0101FB03F3E6
S21440373013441868284A7B6841F28C0101FB03F366
S21440374013440C331C68244A7B6841F28C0101FB0D
S21440375003F3134410331B681A4621462B4B9847F5
S2144037601D4A7B6841F28C0101FB03F31344186841
S214403770194A7B6841F28C0101FB03F313440C3376
S2144037801C68154A7B6841F28C0101FB03F3134425
S21440379014331B681A4621461D4B98470E4A7B68D1
S2144037A041F28C0101FB03F3134418680A4A7B6814
S2144037B041F28C0101FB03F313440C331B680022D7
S2144037C01946144B9847044A7B6841F28C0101FB2A
S2144037D003F313441C681FE0EC010020D332400082
S2144037E089324000CB3140009D5B4000055D400083
S2144037F005314000D13040001F3140003B31400091
S2144038005B3140005569400081684000B568400023
S21440381005694000FB694000314A7B6841F28C01F3
S21440382001FB03F313440C331D682E4B98470246A6
S2144038303B68B2FBF3F3DBB21A46294620462A4BD6
S2144038409847274A7B6841F28C0101FB03F31344F7
S2144038501868234A7B6841F28C0101FB03F313444A
S2144038600C331C681E4A7B6841F28C0101FB03F353
S214403870134418331D781A4A7B6841F28C0101FBC9
S21440388003F3134419331B782A462146174CA047A6
S214403890134A7B6841F28C0101FB03F313441B6817
S2144038A01846134B98470E4A7B6841F28C0101FB41
S2144038B003F3134404331B6840F2022118460D4BB1
S2144038C09847074A7B6841F28C0101FB03F3134497
S2144038D003F5845300221A6000BF0837BD46B0BDCA
S2144038E0EC01002075324000456A4000A36A400063
S2144038F0EB304000ED5D400080B586B000AFF8602C
S2144039007B600B46FB7213463B813B890133B3F524
S214403910026F01DD012382E0434B9847FB6841F28A
S2144039208C0202FB03F303F65803404A1344043365
S2144039303B613B8901337B613C4AFB6841F28C0129
S21440394001FB03F3134404331B6807F11001002204
S2144039501846374B9847354AFB6841F28C0101FBC5
S21440396003F313443C33FA7A1A70FB6841F28C0234
S21440397002FB03F339332D4A134404333A897968FA
S21440398018462C4B9847FB6841F28C0202FB03F327
S2144039903833264A134404333B613B8901337B6109
S2144039A0224AFB6841F28C0101FB03F313440433C3
S2144039B01B6807F11001002218461F4B98471B4A08
S2144039C0FB6841F28C0101FB03F3134404331B688C
S2144039D040F201111846194B9847194B984700BFBB
S2144039E0124AFB6841F28C0101FB03F313441B6847
S2144039F01846144B9847034603F40073002BEFD049
S214403A000A4AFB6841F28C0101FB03F3134404337A
S214403A101B6840F2022118460B4B98470023184675
S214403A201837BD4680BD00BF11294000EC0100207C
S214403A30675D400061864000235D4000CB5D4000EE
S214403A40392940007B314000ED5D400080B586B0AE
S214403A5000AFF8607B600B46FB7213463B813B89A8
S214403A600133B3F5026F01DD0123ECE0784AFB68D1
S214403A7041F28C0101FB03F3134403F584531B68A6
S214403A80002B0BD0724AFB6841F28C0101FB03F31A
S214403A90134404331B6818466E4B98476E4B984742
S214403AA0FB6841F28C0202FB03F303F65803684AB4
S214403AB0134404333B613B8901337B61644AFB68B2
S214403AC041F28C0101FB03F3134404331B6807F1F6
S214403AD0100100221846614B9847FB7A63F07F033B
S214403AE0D8B25B4AFB6841F28C0101FB03F31344F6
S214403AF03C3302461A70FB6841F28C0202FB03F329
S214403B003933534A134404333A8900211846544BF8
S214403B109847FB6841F28C0202FB03F338334C4A69
S214403B20134404333B613B8901337B61484AFB685D
S214403B3041F28C0101FB03F3134404331B6807F185
S214403B40100100221846474B9847474B9847404A33
S214403B50FB6841F28C0101FB03F3134403F58453E5
S214403B601B68002B3CD13A4AFB6841F28C0101FBB2
S214403B7003F3134404331B6840F2011118463B4BD1
S214403B80984700BF324AFB6841F28C0101FB03F3C1
S214403B9013441B681846364B9847034603F01003F9
S214403BA0002BEFD02A4AFB6841F28C0101FB03F35D
S214403BB0134404331B6840F2022118462D4B9847A5
S214403BC0FB6841F28C0202FB03F303F65903204ADA
S214403BD0134404333A8919467868274B984731E0AE
S214403BE01B4AFB6841F28C0101FB03F3134403F5C7
S214403BF0845304337A681A60154AFB6841F28C0194
S214403C0001FB03F3134403F5845308333A891A80BF
S214403C100F4AFB6841F28C0101FB03F313441B6817
S214403C2040211846154B9847094AFB6841F28C01DB
S214403C3001FB03F3134404331B6840F2011118469A
S214403C400A4B9847002318461837BD4680BD00BF2C
S214403C50EC010020AB5D400011294000675D40004C
S214403C605D884000235D400039294000CB5D400020
S214403C707B314000ED5D400061864000933140005E
S214403C8080B500AF0120024B984700BF80BD00BF03
S214403C90F133400080B500AF044B1B68002B02D0C8
S214403CA0024B1B68984700BF80BD00BF44380020C9
S214403CB080B483B000AF0346FB71094997F90730DB
S214403CC05B09FA7902F01F02012000FA02F241F87D
S214403CD0232000BF0C37BD465DF8047B704700BF0D
S214403CE000E100E080B483B000AF0346FB710949B1
S214403CF097F907305B09FA7902F01F02012000FAB3
S214403D0002F2203341F8232000BF0C37BD465DF851
S214403D10047B704700E100E080B483B000AF034608
S214403D20FB71094997F907305B09FA7902F01F02DF
S214403D30012000FA02F2603341F8232000BF0C371E
S214403D40BD465DF8047B704700E100E080B483B078
S214403D5000AF03463960FB7197F90730002B0BDA4A
S214403D600D49FB7903F00F03043B3A68D2B21201C7
S214403D70D2B20B441A7609E0084997F907303A68F8
S214403D80D2B21201D2B20B4483F8002300BF0C37E4
S214403D90BD465DF8047B704700ED00E000E100E0C2
S214403DA080B483B000AF78607B68072B25D801A22B
S214403DB052F823F0D53D4000DB3D4000E13D400059
S214403DC0E73D4000EB3D4000EF3D4000F33D400006
S214403DD0F73D40004FF4FA4310E04FF400430DE047
S214403DE04FF400430AE0084B08E0084B06E0084B57
S214403DF004E0002302E0002300E0002318460C37CE
S214403E00BD465DF8047B704700127A000024F4003B
S214403E1000366E0180B500AF0120044B984702463D
S214403E2040F64E6303FB02F3184680BDA13D4000BA
S214403E3080B500AF024B98470346184680BD00BF8A
S214403E40153E400080B582B000AF7860034B98477F
S214403E50034618460837BD4680BD00BF313E400089
S214403E6080B582B000AF78607868034B984700BF53
S214403E700837BD4680BD00BFE966400090B484B0B8
S214403E8000AF0446084611461A462346FB800346C2
S214403E90BB800B467B8013463B807A88FB889A42E1
S214403EA006D23A88BB889A4202D1BB88013BBB8087
S214403EB0FB88FB60BB881B04FA681343FB60FB6807
S214403EC018461037BD4690BC7047000080B582B09B
S214403ED000AF78607B68042B2DD819497A68134662
S214403EE09B001344DB000B44186815497A68134658
S214403EF09B001344DB000B4404331B681946114BEC
S214403F009847034603F48033002B15D10C497A6852
S214403F1013469B001344DB000B44186808497A6834
S214403F2013469B001344DB000B4404331B681946BE
S214403F30054B984700E000BF0837BD4680BD00BF30
S214403F40042300206B6C4000916B400090B585B018
S214403F5000AF78607048714B984702467B685B08B4
S214403F601A447B68B2FBF3F3013B6D4A13606C4B1B
S214403F701B68FF2B02D94FF0FF33C8E00023FB60DD
S214403F800EE06849FA6813469B001344DB000B4476
S214403F9008331B681846644B9847FB680133FB6040
S214403FA0FB68052BEDD90320604B98475C4B1B689C
S214403FB01B0103F47F63194603205D4B9847034675
S214403FC0002B02D04FF0FF33A1E00320594B984717
S214403FD00023BB6096E05349BA6813469B001344DF
S214403FE0DB000B4418684F49BA6813469B001344DD
S214403FF0DB000B4404331C684A49BA6813469B00EE
S2144040001344DB000B440C331B681A4621464A4BCC
S21440401098474449BA6813469B001344DB000B4458
S21440402018684049BA6813469B001344DB000B44AB
S21440403004331C683B49BA6813469B001344DB00B4
S2144040400B4410331B681A4621463C4B9847BB68C6
S214404050052B1FD13349BA6813469B001344DB0037
S2144040600B441B6802211846354B98472D49BA68C1
S21440407013469B001344DB000B4418682949BA6872
S21440408013469B001344DB000B4404331B6819465D
S2144040902C4B98472349BA6813469B001344DB00D1
S2144040A00B44203393F900301846274B98471D4958
S2144040B0BA6813469B001344DB000B44203393F945
S2144040C000301846214B98471649BA6813469B005D
S2144040D01344DB000B44203393F90030002118468C
S2144040E01B4B98470F49BA6813469B001344DB00A6
S2144040F00B44203393F900301846164B9847BB685C
S2144041000133BB60BB68052B7FF665AF00231846BE
S2144041101437BD4690BD00BF00000140453E4000FC
S2144041204838002004230020613E4000ED674000F0
S2144041306D674000C5674000396B4000F76B400034
S214404140736B4000916B4000E53C4000193D4000D9
S2144041504D3D4000B13C400090B587B000AF786020
S2144041607B68042B04D94FF000034FF0000480E036
S21440417042497A6813469B001344DB000B441B6895
S2144041803F4A93425AD13D497A6813469B001344AE
S214404190DB000B4404331B68012B4FD137497A6848
S2144041A013469B001344DB000B44186833497A6877
S2144041B013469B001344DB000B4404331B6819462C
S2144041C0304B98470346FB812C4BD3F8C8202B4BEB
S2144041D0D3F8CC30194610462A4B98470346BB8145
S2144041E026497A6813469B001344DB000B44186844
S2144041F022497A6813469B001344DB000B44043381
S2144042001B6819461F4B984703467B811B4BD3F8C8
S214404210C8201A4BD3F8CC3019461046194B98474D
S21440422003463B813B897A89B989F889164CA04771
S21440423003464FF00004C7E9043418E00F497A6893
S21440424013469B001344DB000B4418680B497A68FE
S21440425013469B001344DB000B4404331B6819468B
S214404260084B984703464FF00004C7E90434D7E9A3
S2144042700434184621461C37BD4690BD0423002012
S21440428000000140B36B40007D3E400080B582B0E8
S21440429000AF78600B46FB707B68042B02D94FF06A
S2144042A0FF3329E016497A6813469B001344DB0027
S2144042B00B44186812497A6813469B001344DB0087
S2144042C00B4404331B68102219460E4B98470C4982
S2144042D07A6813469B001344DB000B4418330022D5
S2144042E01A6007497A6813469B001344DB000B4468
S2144042F01C3300221A60002318460837BD4680BD8E
S21440430004230020436C4000B0B584B000AF786012
S2144043100023FB607AE04149FA6813469B00134449
S214404320DB000B4424331A687B689A426BD13B49C6
S214404330FA6813469B001344DB000B441868374961
S214404340FA6813469B001344DB000B4404331B6897
S2144043501946334B9847034603F01003102B52D1AF
S2144043602E49FA6813469B001344DB000B441C6836
S2144043702A49FA6813469B001344DB000B44043377
S2144043801D682649FA6813469B001344DB000B441D
S21440439018682249FA6813469B001344DB000B4416
S2144043A004331B6819461F4B98471C49FA68134646
S2144043B09B001344DB000B4414331B6803441A462B
S2144043C029462046184B98471449FA6813469B00DE
S2144043D01344DB000B4418331B68002B13D00F49E3
S2144043E0FA6813469B001344DB000B4418331968E5
S2144043F00A48FA6813469B001344DB0003441C3308
S2144044001B6818468847FB680133FB60FB68042B33
S21440441081DD00BF1037BD46B0BD00BF042300207D
S2144044206B6C4000D56B40001D6C400080B500AF03
S214404430054BD3F8C820044BD3F8CC301946104669
S214404440024B984700BF80BD042300206B6C4000A1
S21440445080B500AF0248034B984700BF80BD00BF01
S214404460514440000943400080B500AF0248034B2A
S214404470984700BF80BD00BF6944400009434000E4
S21440448080B500AF0248034B984700BF80BD00BFD1
S214404490814440000943400080B500AF0248034BCA
S2144044A0984700BF80BD00BF994440000943400084
S2144044B080B500AF0248034B984700BF80BD00BFA1
S2144044C0B14440000943400080B483B000AF034687
S2144044D0FB71094997F907305B09FA7902F01F0228
S2144044E0012000FA02F241F8232000BF0C37BD46F7
S2144044F05DF8047B704700BF00E100E080B483B005
S21440450000AF78607B68072B25D801A252F823F0CD
S21440451031454000374540003D454000434540005A
S214404520474540004B4540004F45400053454000FE
S2144045304FF4FA4310E04FF400430DE04FF40043CD
S2144045400AE0084B08E0084B06E0084B04E000236E
S21440455002E0002300E0002318460C37BD465DF815
S214404560047B704700127A000024F40000366E0187
S21440457080B500AF0120044B9847024640F64E6394
S21440458003FB02F3184680BDFD44400080B500AFF3
S214404590024B98470346184680BD00BF7145400011
S2144045A080B582B000AF78607868034B984700BF0C
S2144045B00837BD4680BD00BFE966400080B487B07E
S2144045C000AF786039607B687B613B683B617B69A4
S2144045D0FB60FB6803F5001303F207735B021A46A1
S2144045E03B69536000BF1C37BD465DF8047B70478F
S2144045F080B48BB000AFF860B9607A60FB687B62CD
S214404600BB683B627B68FB617B6ABB61BB6903F549
S214404610001303F207735B027B61FB6903F0080338
S214404620002B03D07B693A6A5A6602E07B693A6A95
S2144046301A66FB6903F01003002B04D07B693A6AC4
S214404640C3F8942003E07B693A6AC3F89020FB697C
S21440465003F02003002B03D07B693A6A1A6502E018
S2144046607B693A6A5A65FB6903F0C003002B03D0A6
S2144046707B693A6A1A6202E07B693A6A5A62FB6967
S21440468003F08003002B04D07B693A6AC3F8842089
S21440469003E07B693A6AC3F88020FB6903F00103B4
S2144046A0002B06D07B691A6F3B6A1A437B691A67F0
S2144046B006E07B691A6F3B6ADB431A407B691A67E0
S2144046C0FB6903F00203002B06D07B695A6F3B6AF6
S2144046D01A437B695A6706E07B695A6F3B6ADB433D
S2144046E01A407B695A6700BF2C37BD465DF8047B8D
S2144046F07047000080B588B000AF786039603B688E
S2144047001B68BB603B685B68FB603B689B683B61C3
S2144047103B68DB687B610023BB617B68694A9342E8
S21440472015D16948694B984701216748684B9847B7
S214404730684B9847024607F1080319467868664B67
S21440474098477868654B98477868654B98477B6884
S214404750644A934215D164485C4B984701216248AD
S2144047605B4B98475B4B9847024607F10803194650
S2144047707868594B98477868584B98477868584BAC
S21440478098477B68594A934215D159484F4B9847AA
S214404790012157484E4B98474E4B9847024607F1E3
S2144047A00803194678684C4B984778684B4B9847AF
S2144047B078684B4B98477B684E4A934215D14E4893
S2144047C0424B984701214C48414B9847414B9847AC
S2144047D0024607F10803194678683F4B98477868C1
S2144047E03E4B984778683E4B98477B68434A93428F
S2144047F015D14348354B984701214148344B98479B
S214404800344B9847024607F1080319467868324BFE
S21440481098477868314B98477868314B98477B681B
S214404820384A934215D13848284B98470121364894
S214404830274B9847274B9847024607F108031946E7
S2144048407868254B98477868244B98477868244B77
S21440485098477B682D4A934215D12D481B4B984765
S21440486001212B481A4B98471A4B9847024607F1A6
S214404870080319467868184B98477868174B984746
S2144048807868174B98477B68224A934215D122484E
S2144048900E4B9847012120480D4B98470D4B9847A3
S2144048A0024607F10803194678680B4B9847786824
S2144048B00A4B984778680A4B984700BF2037BD4652
S2144048C080BD00BF00C2004000C000409D5B40006D
S2144048D0055D40008D4540004D714000D17140005F
S2144048E005724000000202400000024000420240C2
S2144048F000400240008201400080014000C201406A
S21440490000C0014000820040008000400002044099
S214404910000004400042034000400340B0B588B069
S21440492000AF78607B681B78FB76FB7EA14A5C21F3
S21440493001FB03F3134440331B78DBB2002B09D151
S214404940FB7E9C4A5C2101FB03F3134441331B78F6
S214404950002B01D0002329E17B689B89002B06D1E0
S2144049607B68DB89002B02D16FF003031EE1FC7EDF
S214404970FB7E904A5C2101FB03F313441B681846F8
S2144049808D4B984701468B4A5C2303FB04F3134444
S21440499004331960FB7E874A5C2101FB03F3134412
S2144049A0403301221A70FB7E824A5C2101FB03F3EE
S2144049B01344413301221A70FB7E7A6892687D491F
S2144049C05C2000FB03F30B4444331A60FB7E7A689A
S2144049D0526878495C2000FB03F30B4448331A6066
S2144049E0FB7E7A68D089734A5C2101FB03F313444B
S2144049F04C3302461A80FB7E7A6890896D4A5C2169
S214404A0001FB03F313444E3302461A80FB7E7A685A
S214404A10926968495C2000FB03F30B4454331A60E8
S214404A20FB7E7A68D26963495C2000FB03F30B4443
S214404A3058331A600023FB6162E0F97E5D48FA69EC
S214404A4013465B0013449B005C2202FB01F21344B6
S214404A50034410331B68B3F1FF3F4ED0F97E5548F0
S214404A60FA6913465B0013449B005C2202FB01F28A
S214404A701344034410331C68F97E4E48FA691346C3
S214404A805B0013449B005C2202FB01F21344034488
S214404A9014331D68F97E4748FA6913465B00134491
S214404AA09B005C2202FB01F21344034418331B684C
S214404AB01A4629462046414B9847F97E3D48FA69B2
S214404AC013465B0013449B005C2202FB01F2134436
S214404AD0034410331C68F97E3648FA6913465B0077
S214404AE013449B005C2202FB01F21344034414333C
S214404AF01B6819462046324B9847FB690133FB61D9
S214404B00FB69032B99D97B681B69BB60C023FB609C
S214404B1000237B614FF400633B61FB7E254A5C21AA
S214404B2001FB03F313440C331B681846254B984788
S214404B30FB7E204A5C2101FB03F313441B6807F10C
S214404B40080211461846204B98477B681B7D002B71
S214404B5010D0FB7E002B0AD1164B1B68154A1268F4
S214404B60526822F00F0242F002025A6002E06FF0F2
S214404B7003031BE0FB7E0F4A5C2101FB03F3134457
S214404B8008331B685BB21846104B9847FB7E094AB1
S214404B905C2101FB03F3134404331B684FF480325B
S214404BA01A62FB7E18460A4B98470346184620373B
S214404BB0BD46B0BDF4230020C1724000F145400020
S214404BC0BD454000A1454000F5464000C944400070
S214404BD0154F400080B584B000AF03463960FB7186
S214404BE01346BB803B68BB60BB88BB8107F10802AD
S214404BF0FB7911461846034B98470346184610372C
S214404C00BD4680BD094C400080B588B000AF034625
S214404C103960FB710023FB614FF47A73BB61FB790B
S214404C201846574B98470346FB75FB7D012B40F0D3
S214404C309B803B689A88FB7952495C2000FB03F3D3
S214404C400B444E331B889A4203D96FF00203FB6134
S214404C5090E04D4B9847FB794A4A5C2101FB03F3B1
S214404C60134404331B681846484B984738613B69E1
S214404C7003F48073002B04D0454B98476FF0010334
S214404C8079E0FB793F4A5C2101FB03F31344483348
S214404C9018683B6819683B689B881A463D4B98479E
S214404CA0FB79384A5C2101FB03F3134448331B6805
S214404CB0BB603B689B88FB60FB79324A5C2101FB0A
S214404CC003F3134404331B6807F108010022184617
S214404CD0314B9847FB792B4A5C2101FB03F3134485
S214404CE004331B684FF4807118462C4B9847FB7969
S214404CF0244A5C2101FB03F313441B684FF4006114
S214404D001846274B9847FB791E4A5C2101FB03F364
S214404D101344403302221A7000BFFB79194A5C21C3
S214404D2001FB03F3134404331B681846174B98479C
S214404D30034603F48073002B04D1BB695A1EBA6144
S214404D40002BEADCBB69002B0BD1FB790D4A5C21BA
S214404D5001FB03F31344403301221A704FF0FF3334
S214404D60FB610B4B984705E0FB7D022B02D16FF0B1
S214404D700103FB61FB6918462037BD4680BD00BF76
S214404D80E94E4000F4230020112940000F5E400009
S214404D903929400061864000235D4000CB5D4000DD
S214404DA039724000B0B584B000AF0346FB714FF097
S214404DB0FF33FB60FB791846264B98470346002B8B
S214404DC043DD254B9847FB79244A5C2101FB03F3DE
S214404DD0134444331968FB7920485C2202FB03F2F3
S214404DE002445032128892B2501C85B21B485C2452
S214404DF004FB03F3034450332846188013460B4401
S214404E001B78DBB2FB60F979FB79144A5C2000FB27
S214404E1003F3134450331B889BB2FA790F485C2443
S214404E2004FB02F202444C321288B3FBF2F002FB5F
S214404E3000F29B1A98B2094A5C2303FB01F3134421
S214404E40503302461A80064B9847FB681846103780
S214404E50BD46B0BD654E400011294000F4230020F9
S214404E603929400090B585B000AF0346FB71FB7909
S214404E701B4A5C2101FB03F313444C331C88FB792B
S214404E80174A5C2101FB03F3134404331B6818469E
S214404E90144B984703469BB2E31AFB81FB79104AB2
S214404EA05C2101FB03F3134450331B88BB81FA8912
S214404EB0BB899A4203D3FA89BB89D31A0CE0FB79A3
S214404EC0074A5C2101FB03F313444C331B88194605
S214404ED0BA89FB89D31ACB1A18461437BD4690BDFB
S214404EE0F4230020275E400080B483B000AF034622
S214404EF0FB71FB79064A5C2101FB03F31344403304
S214404F001B78DBB218460C37BD465DF8047B70470D
S214404F10F423002080B588B000AF0346FB71002321
S214404F20FB614FF47A73BB61454B9847FB79454A22
S214404F305C2101FB03F3134441331B78012B74D1EE
S214404F40FB79404A5C2101FB03F3134404331B689E
S214404F5018463D4B984778617B6903F00103002B68
S214404F6004D03A4B98476FF0010364E0FB79354A2A
S214404F705C2101FB03F3134444331B68FB60FB795D
S214404F80304A5C2101FB03F313444C331B883B61DE
S214404F90FB792C4A5C2101FB03F3134404331B6862
S214404FA007F10C0207F10C011846294B9847FB798C
S214404FB0244A5C2101FB03F31344413303221A7055
S214404FC0FB79204A5C2101FB03F3134404331B683E
S214404FD0012118461F4B98474FF47A73BB6100BFB8
S214404FE0FB79184A5C2101FB03F3134404331B6826
S214404FF01846154B9847034603F00103002B04D18F
S214405000BB695A1EBA61002BEADCBB69002B0FD184
S214405010FB790C4A5C2101FB03F313444133012224
S2144050201A704FF0FF33FB6102E06FF00103FB6143
S214405030064B9847FB6918462037BD4680BD00BFE3
S21440504011294000F42300200F5E4000392940001B
S214405050675D4000CB5D400080B584B000AF03463E
S214405060FB71FB79284A5C2101FB03F313441B6860
S2144050701846264B9847F860FB6803F40063002BFD
S2144050803DD0FB79204A5C2101FB03F313440433F3
S2144050901B684FF4007118461D4B9847FB791A4A17
S2144050A05C2101FB03F313441B684FF40061184670
S2144050B0184B9847FB79144A5C2101FB03F31344D1
S2144050C0403301221A70FB790F4A5C2101FB03F33F
S2144050D0134454331B68002B11D0FB790A4A5C21D9
S2144050E001FB03F3134454331B68FA7906495C20EA
S2144050F000FB02F20A44583212681046984700BF36
S2144051001037BD4680BD00BFF423002071724000BA
S214405110ED5D40005572400080B500AF0020024B68
S214405120984700BF80BD00BF5950400080B500AFD3
S2144051300120024B984700BF80BD00BF5950400039
S21440514080B586B000AFF860B9601346FB80FB6858
S2144051509B88FB82FB685B89BB82FB685B899AB253
S214405160FB8813449AB2FB685A81FB685B899BB202
S214405170FA68D288B3FBF2F102FB01F29B1A9AB2AC
S214405180FB685A81FB68DB881A46BB8AD21AFB88C2
S2144051909A420BDBFB681B68F98ABA8A0A441344B6
S2144051A0FA881946B868154B984723E0FB681B6891
S2144051B0F98ABA8A0A449918FB68DB881A46BB8A79
S2144051C0D31A1A46B8680D4B9847FB68DB881A46D0
S2144051D0BB8AD31A1A46BB689818FB681A68FB8ABB
S2144051E0D118FB88FA68D2889A1ABB8A13441A46A2
S2144051F0024B984700BF1837BD4680BD61864000C9
S21440520080B586B000AFF860B9601346FB80FB6897
S2144052109B88FB82FB681B89BB82FB68DB881A463F
S214405220BB8AD21AFB889A420BDBFB681B68F98A5A
S214405230BA8A0A441344FA88B96818461F4B9847F6
S21440524023E0FB681B68F98ABA8A0A449818FB6808
S214405250DB881A46BB8AD31A1A46B968174B984752
S214405260FB681A68FB8AD018FB68DB881A46BB8A3C
S214405270D31A1A46BB689918FB88FA68D2889A1AD5
S214405280BB8A13441A460D4B9847FB681B899AB253
S214405290FB8813449AB2FB681A81FB681B899BB251
S2144052A0FA68D288B3FBF2F102FB01F29B1A9AB27B
S2144052B0FB681A8100BF1837BD4680BD6186400036
S2144052C080B485B000AF78607B681B89FB817B68C3
S2144052D05B89BB81FA89BB899A4204D3FA89BB8928
S2144052E0D31A9BB207E07B68DA88BB89D31A9AB296
S2144052F0FB8913449BB218461437BD465DF8047BC1
S2144053007047000090B583B000AF78607B68DC885B
S2144053107868044B98470346E31A9BB218460C3706
S214405320BD4690BDC152400080B586B000AF7860A3
S2144053307B683B613B6910331846134B98470346DE
S214405340FB82FB8A002B1AD03B699B8AFA8A9A42D8
S21440535002D33B699B8AFB823B691033FA8A0B492E
S21440536018460B4B9847094BBB60FB8ABB813B6991
S2144053701B7807F1080211461846064B984700BFAF
S2144053801837BD4680BD00BFC15240008C43002048
S21440539041514000094C400080B58CB000AF786069
S2144053A07B681B7887F82F307B681B783B737B685D
S2144053B05B68FB617B681B7A87F82030204B7B62FA
S2144053C097F82F201F491346DB009B1A9B000B447F
S2144053D010331B683B6197F82F201A491346DB00B1
S2144053E09B1A9B000B4404331B687B6197F82F2065
S2144053F014491346DB009B1A9B000B4414331B884E
S2144054003B8397F82F200F491346DB009B1A9B00DF
S2144054100B4408331B887B8397F82F201346DB000A
S2144054209B1A9B00074A1344BB6207F10C031846BD
S214405430054B9847034618463037BD4680BD00BFEB
S21440544029534000AC2400201D49400080B586B05A
S21440545000AF03463960FB711346BB8000237B6177
S214405460FA791346DB009B1A9B00344A13443B618F
S214405470BA883B699B8A19463B69DB8A0B449A4249
S21440548002DD6FF0020355E02D4B98473B691B78D1
S21440549018462C4B98470346FB73FB7B012B27D1C2
S2144054A03B699B8ABA889A4208D83B691B78BA8877
S2144054B039681846244B9847786138E03B6903F1D1
S2144054C010003B699B8A1A463B6899183B699B8A41
S2144054D0BA88D31A9BB21A461C4B98473B69187831
S2144054E03B699B8A1A463968174B984778611EE095
S2144054F0FB7B022B15D13B6910331846144B98475B
S21440550003461A46BB88934203D96FF002037B6179
S2144055100DE03B691033BA88396818460B4B9847FC
S21440552005E0FB7B002B02D14FF0FF337B61094B3C
S21440553098477B6918461837BD4680BDAC24002086
S21440554011294000E94E4000D54B40000152400032
S214405550055340003929400080B582B000AF03466D
S214405560FB71FB791846034B9847034618460837A5
S214405570BD4680BDA54D400080B483B000AF786086
S2144055807B681033102B45D801A252F823F000BF99
S214405590115640000D564000095640000556400042
S2144055A001564000FD554000F9554000F555400075
S2144055B015564000F1554000ED554000E955400075
S2144055C0E5554000E1554000DD554000D9554000C6
S2144055D0D5554000134B1EE0134B1CE0134B1AE00E
S2144055E0134B18E0134B16E0134B14E0134B12E02A
S2144055F0134B10E0134B0EE0134B0CE0134B0AE03A
S214405600134B08E0134B06E0134B04E0134B02E049
S214405610134B00E0134B18460C37BD465DF8047B31
S214405620704700BF90C4400098C44000ACC44000DF
S214405630BCC44000CCC44000F8C440000CC5400088
S21440564028C540003CC540004CC540005CC54000F5
S21440565070C5400084C5400098C54000ACC54000B9
S214405660C0C54000D0C5400080B483B000AF78606D
S21440567039600C4A7B6813607B68002B03DA094B61
S21440568000221A6005E07B68062B02DD054B0622E9
S2144056901A60054A3B68136000BF0C37BD465DF88C
S2144056A0047B7047CC430020D04300200EB480B526
S2144056B085B000AF78607B68002B11D00C4B1B6820
S2144056C07A689A420CDC0B4B1B68002B08D007F11B
S2144056D02003FB60074B1B68FA68F96978689847AF
S2144056E000BF1437BD46BDE8804003B0704700BFDA
S2144056F0CC430020D043002080B582B000AF786015
S2144057007B68072B31D801A252F823F06957400036
S2144057102D574000355740003D5740004557400004
S2144057204D574000555740005F5740000020114BF2
S21440573098471AE001200F4B984716E000200E4B82
S214405740984712E010200C4B98470EE020200A4B5A
S21440575098470AE03E210020084B984705E03E2146
S2144057600120064B984700E000BF00BF0837BD4603
S21440577080BD00BF116540007D654000ED6540007E
S21440578080B582B000AF78607B68072B26D801A230
S21440579052F823F0B5574000B9574000B95740007B
S2144057A0CB574000CB574000CB574000CB5740002C
S2144057B0CB574000012312E00B4B98470346002B83
S2144057C014BF01230023DBB209E0084B9847034689
S2144057D0002B14BF01230023DBB200E00023184651
S2144057E00837BD4680BD00BF49654000656640003D
S2144057F080B483B000AF78607B68072B25D801A2C1
S21440580052F823F0255840002B58400031584000AD
S214405810375840003B5840003F58400043584000EF
S214405820475840004FF4FA4310E04FF400430DE071
S2144058304FF400430AE0084B08E0084B06E0084BEC
S21440584004E0002302E0002300E0002318460C3763
S214405850BD465DF8047B704700127A000024F400D1
S21440586000366E0180B582B000AF0346FB7100BFC4
S214405870FB791846054B9847034683F00103DBB295
S214405880002BF5D100BF0837BD4680BD815740008C
S21440589080B586B000AFF8607A603B600B46FB721E
S2144058A0FB7A18460D4B984702467B68B2FBF3F3EB
S2144058B07B617B693A6802FB03F37B613B68013B93
