S01400006578616D706C652D616C676F2E7372656354
S214400000E8820020F1974000C1984000C198400027
S214400010C1984000C1984000C198400000000000D0
S214400020000000000000000000000000C1984000F2
S214400030C198400000000000C19840000D5F40009D
S214400040C1984000C1984000B5524000C198400059
S214400050C1984000C1984000C1984000A573400038
S21440006091734000C1984000000000008587400022
S2144000709D874000C1984000C1984000C19840000C
S214400080C1984000C1984000C1984000C1984000C7
S214400090C1984000F95E4000C1984000A566400007
S2144000A0C9664000E1664000F966400011674000BE
S2144000B029674000C1984000C198400000000000F9
S2144000C000000000000000000000000000000000EB
S2144000D000000000000000000000000000000000DB
S2144000E000000000000000000000000000000000CB
S2144000F0000000000000000000000000C198400022
S214400100C1984000C1984000000000000000000078
S214400110000000000000000000000000000000009A
S214400120000000000000000000000000000000008A
S214400130000000000000000000000000000000007A
S214400140000000000000000010B5054C237833B9CD
S214400150044B13B10448AFF300800123237010BD55
S214400160C82E002000000000D43B41000C4B43B199
S2144001700C480D4910B5AFF300800C48036823B90E
S21440018010BD0A48036833B97047094B002BF7D0B7
S214400190BDE810401847064B002BF5D0184700BF67
S2144001A000000000D43B4100CC2E0020D43B410050
S2144001B00000000080B586B000AF0346FB71FB79B7
S2144001C03B734FF461233B6100233B7507F10C03FF
S2144001D01846034B984700BF1837BD4680BD00BF42
S2144001E01176400080B582B000AF78607B681B7E99
S2144001F0002B06D0012B07D107490120074B984713
S21440020005E0074B984702E04FF0FF3300E000233D
S21440021018460837BD4680BD808D5B00715740004C
S2144002203551400090B585B000AFF8607A603B60CD
S2144002300B46FB72FB681B7E002B0ED0012B18D1A1
S2144002403B689AB2F97A7B6801200D4CA04703467A
S21440025011E04FF4FA400B4B98473B689AB2F97A54
S2144002607B686920084CA0470346002BF1D1002349
S21440027001E04FF0FF3318461437BD4690BD00BF2F
S214400280C55C40005D4A40005D52400090B587B076
S21440029000AFF8607A603B600B46FB72FB681B7EE3
S2144002A0002B24D0012B2ED100237B6115E07B69E7
S2144002B0DAB2FB7A1344D9B27A687B6913440122D6
S2144002C00120144CA04703463B613B69002B01D0FC
S2144002D03B691AE07B6901337B617A693B689A42E5
S2144002E0E5D3002311E04FF4FA400B4B98473B68A8
S2144002F09AB2F97A7B686920084CA0470346002BDF
S214400300F1D1002301E04FF0FF3318461C37BD46BD
S21440031090BD00BF715B40005D4A4000F151400017
S21440032080B485B000AF78607B681B68FB60FA8954
S214400330BB89D31A9BB218461437BD465DF8047B7A
S2144003407047000090B585B000AF78600023FB6032
S2144003501F4904201F4B98471F4A79681F48204B67
S2144003609847F860FB68002B05D01E490120194BC2
S2144003709847FB6827E01C490420164B984707F12E
S2144003800B0319461548194B9847F860FB68002B35
S21440039005D0174901200F4B9847FB6813E0FB7ABE
S2144003A0422B09D0FB7A1A46422312490120094CB7
S2144003B0A0474FF0FF3306E00F4B00221A800E4B4B
S2144003C000225A80FB6818461437BD4690BD00BFD1
S2144003D0E82F410025794000D1074000E82E002054
S2144003E09D164000F82F4100243041000919400076
S2144003F03C30410070304100D048002080B582B08B
S21440040000AF00237B602A4B984702467B68134325
S2144004107B6028492848294B984702467B68134307
S2144004207B6024492448254B984702467B68134303
S2144004307B6002231846224B98470346DBB2194698
S2144004401D48204B984702467B6813437B607D23BC
S21440045018461D4B98470346DBB2194616481B4BB9
S214400460984702467B6813437B6008211248184B26
S214400470984702467B6813437B6008210E48154B1D
S214400480984702467B6813437B600B48124B98475D
S21440049002467B6813437B600748104B98470246EA
S2144004A07B6813437B607B6818460837BD4680BD33
S2144004B0D94A400068370020E82E00208D3F400093
S2144004C0C1114000E52C400049114000492D400034
S2144004D0E12B4000812C400099194000611C4000EF
S2144004E02DE9B04384B004AF724A73497348744BE5
S2144004F098470346002B40F0BC8072490320724B5D
S21440050098476E4B1B6807EE903AF8EEE77A9FEDF9
S2144005106F7AC7EE876A6E4B16EE900A984780460B
S2144005208946664B5B6807EE903AF8EEE77A9FEDB1
S214400530677AC7EE876A664B16EE900A9847044677
S2144005400D465E4B9B6807EE903AF8EEE77A9FEDD5
S2144005505F7AC7EE876A5E4B16EE900A9847024669
S2144005600B46CDE90223CDE9004542464B46594964
S2144005700320554CA047504B1B6807EE903AF8EEC8
S214400580E77A9FED527AC7EE876A514B16EE900A8D
S214400590984780468946484B5B6807EE903AF8EEA7
S2144005A0E77A9FED4A7AC7EE876A494B16EE900A7D
S2144005B0984704460D46404B9B6807EE903AF8EE47
S2144005C0E77A9FED427AC7EE876A414B16EE900A6D
S2144005D0984702460B46CDE90223CDE90045424600
S2144005E04B463D490320384CA047324B1B6807EE2C
S2144005F0903AF8EEE77A9FED357AC7EE876A344B45
S21440060016EE900A9847804689462A4B5B6807EE66
S214400610903AF8EEE77A9FED2D7AC7EE876A2C4B34
S21440062016EE900A984704460D46224B9B6807EE06
S214400630903AF8EEE77A9FED257AC7EE876A244B24
S21440064016EE900A984702460B46CDE90223CDE9BE
S214400650004542464B46214903201B4CA047204BB1
S21440066003221A601F4B02221A601F4B01221A6097
S2144006701BE01E490320144B98470C2200210F48CC
S2144006801B4B98470C2200210B48194B98470C22CD
S21440069000210848164B9847114B00221A60114B10
S2144006A000221A60104B00221A6000231846BD46EE
S2144006B0BDE8B083203900201439002008390020D6
S2144006C0D10A4000B0304100257940000000804704
S2144006D031E54000D0304100EC3041000831410067
S2144006E02C39002030390020343900202431410094
S2144006F03DFA400080B58EB000AF00237B634822B1
S21440070000212148214B9847BC22002120481F4BFE
S21440071098473B1D3022002118461C4B9847022321
S2144007207B617D23BB6108201A4B98470346FB61DB
S2144007300820184B984703463B62174BFB624FF422
S214400740C8133B630023FB60144B7B60144BBB60B9
S214400750144BFB60144B1B685BB23B74134B1B681B
S2144007605BB27B74124B1B685BB2BB743B1D184676
S214400770104B984703461A467B6B13437B637B6B51
S21440078018463837BD4680BD003800203DFA400048
S21440079048380020D9104000D1F9EA1E0839002018
S2144007A014390020203900202C3900203039002010
S2144007B03439002051A5400080B500AF0248034BB5
S2144007C098470346184680BDE82E0020B9254000CD
S2144007D090B58DB004AF78604FF000034FF0000442
S2144007E0C7E904344B4B98474B484C4B9847034615
S2144007F0002B14D0484B1B88FB83FB8B03F03F0336
S214400800454A0133DB001344D3E90034C7E90434D6
S214400810414B1B889BB201339AB23F4B1A80404BE8
S21440082098477B689888D7E904347A68126807F155
S214400830080103910292CDE90034024639493A480C
S2144008403A4B98473A4B00221A607B681B6803F085
S2144008500103002B1BD07B68B3F906301B01344ADA
S21440086013617B68B3F908301B01314A53617B68DA
S214400870B3F90A301B012E4A93612E492E482F4B5E
S21440088098472B4B1B6843F00103294A13607B684B
S2144008901B6803F00203002B1BD07B68B3F90C30B7
S2144008A01B01234AD3617B68B3F90E301B01204AF3
S2144008B013627B68B3F910301B011D4A536220490E
S2144008C01D481E4B98471A4B1B6843F00203184AB4
S2144008D013607B68B3F91220154B1A85D7E90234AA
S2144008E0134AC2E9023417491148174B9847174B29
S2144008F09847144B1B6803F00203002B06D0144B9A
S2144009001B680133124A1360124B984700BF2437C6
S214400910BD4690BD49494000D048002021034000D4
S2144009207149400068370020E82E0020193D4000FD
S2144009300038002010380020F4000020910C4000C1
S2144009401C38002048380020959F4000ED0B4000A2
S21440095004390020590940002DE9F04FB3B00EAFDE
S21440096007F18001032310224A484B4CA04707F169
S2144009707401032310224948474CA04707F16801F9
S214400980032310224648444CA04707F15C0103234A
S21440099010224448404CA04707F15801012310223A
S2144009A041483D4CA04707F1480104231E223F48DA
S2144009B0394CA04707F13001032310223C48364CFF
S2144009C0A04707F12401032310223A48324CA0479F
S2144009D007F13C0207F1480311461846364B984744
S2144009E00020364B9847034687F88F3097F98F306C
S2144009F0732B4AD1324BD3E90234FB61D7F88020BF
S214400A00304B1046984780468946D7F884202D4B71
S214400A101046984782468B46D7F88820294B104682
S214400A209847C7E90401BA6D264B10469847C7E970
S214400A300201BA6E234B10469847C7E90001FA6E8A
S214400A40204B1046984705460E463A6F1D4B1046BB
S214400A50984703460C46CDE90C34CDE90A5697ED47
S214400A60007B8DED087B97ED027B8DED067B97ED49
S214400A70047B8DED047BCDE902ABCDE90089FA69B4
S214400A8011490320114B984700E000BF9437BD46FC
S214400A90BDE8F08F58380020110E40006438002022
S214400AA0803800208C38002000390020C4380020D0
S214400AB0E8380020F4380020890E4000D177400006
S214400AC00038002031E540004031410025794000A3
S214400AD080B59CB000AFF860B9607A60002387F8B4
S214400AE06F3007F1140318461A4B9847B866BB6E2A
S214400AF0002B02D04FF0FF3328E097F86F3007F115
S214400B00140213440C221946F868134B984797F87A
S214400B106F300C3387F86F3097F86F3007F1140258
S214400B2013440C221946B8680B4B984797F86F3019
S214400B300C3387F86F3097F86F3007F11402134480
S214400B400C2219467868044B9847BB6E1846703797
S214400B50BD4680BD314B400041F8400080B59AB05C
S214400B6000AFF860B9607A6007F1100354220021A4
S214400B7018461B4B9847002387F8673097F867302E
S214400B8007F1100213440C22F9681846154B984793
S214400B9097F867300C3387F8673097F8673007F177
S214400BA0100213440C22B96818460E4B984797F823
S214400BB067300C3387F8673097F8673007F11002D4
S214400BC013440C2279681846064B984707F11003E1
S214400BD01846054B984700BF6837BD4680BD00BFE6
S214400BE03DFA400041F84000CD4B400098B500AF7C
S214400BF0204B1B78002B3BD11F4B93F92830032BFF
S214400C000AD11E4A1C4B14461C3393E8070084E85E
S214400C1007001A4B01221A73174B93F95030032BD7
S214400C200AD1174A144B1446443393E8070084E825
S214400C300700134B01221A730C2200211148124B55
S214400C409847104B01221A730C4B1B7B012B0FD17C
S214400C500B4B1B7B012B0BD10A4B1B7B012B07D16C
S214400C60084A07490548094B9847024B01221A7023
S214400C7000BF98BD38390020483800203C39002055
S214400C804C3900205C3900203DFA40005D0B4000A6
S214400C902DE9F04F8DB000AFF860B9600022FA62DF
S214400CA08EE0F96A0A4652000A4492001146FA68F3
S214400CB00A44126892464FEAEA7BBA6812681146BE
S214400CC04FEAE17201FB0BFE0AFB02F07044AAFBFE
S214400CD0011210440246F86AC00007F1300E704414
S214400CE02038C0E90012FA6AD20007F130010A44FF
S214400CF0203AD2E90012C7E90012F96A0A465200C1
S214400D000A4492000432F9680A44126892464FEA4E
S214400D10EA7BBA680432126811464FEAE17201FB78
S214400D200BFE0AFB02F07044AAFB01121044024676
S214400D30D7E900AB1AEB010A4BEB020B51465A4679
S214400D40F86AC00007F1300E70442038C0E900123F
S214400D50FA6AD20007F130010A44203AD2E900127A
S214400D60C7E90012F96A0A4652000A44920008325D
S214400D70F9680A44126892464FEAEA7BBA68083233
S214400D80126811464FEAE17201FB0BFE0AFB02F0C5
S214400D907044AAFB011210440246D7E900AB1AEB96
S214400DA0010A4BEB020B51465A46F86AC00007F15F
S214400DB0300E70442038C0E90012FA6A0132FA62F6
S214400DC0FA6A022A7FF66DAFD7E904124FEA9178A5
S214400DD048EA82084FEAA2794146BA681160BA6882
S214400DE0101DD7E906128D0F45EA820596172A464A
S214400DF00260BA6802F10800D7E908128B0F43EA8E
S214400E0082039417036000BF3437BD46BDE8F08FB9
S214400E1080B487B000AFF860B96011461A460B46FA
S214400E20FB711346BB71FB79012202FA03F307EE0E
S214400E30903AB8EEE77AF7EE006AC6EE877AC7EDE4
S214400E40047A00237B6115E07B699B00BA681344F3
S214400E507A699200F9680A44126807EE902AB8EE5A
S214400E60E77AD7ED047A67EE277AC3ED007A7B6996
S214400E7001337B61BA797B699A42E5DC00BF1C3757
S214400E80BD465DF8047B704790B599B000AF78607A
S214400E9039608D4BFB657B680433D3ED007A77EE83
S214400EA0A77AC7ED167A7B680833D3ED007A77EEDB
S214400EB0A77AC7ED157A7B680C33D3ED007A77EEC8
S214400EC0A77AC7ED147A7B6893ED007AD7ED167A49
S214400ED067EE277AC7ED137A7B6893ED007AD7EDF5
S214400EE0157A67EE277AC7ED127A7B6893ED007A1B
S214400EF0D7ED147A67EE277AC7ED117A7B6804330C
S214400F0093ED007AD7ED167A67EE277AC7ED107A1A
S214400F107B68043393ED007AD7ED157A67EE277A2F
S214400F20C7ED0F7A7B68043393ED007AD7ED147AD9
S214400F3067EE277AC7ED0E7A7B68083393ED007A22
S214400F40D7ED157A67EE277AC7ED0D7A7B680833BA
S214400F5093ED007AD7ED147A67EE277AC7ED0C7AD0
S214400F607B680C3393ED007AD7ED147A67EE277AD8
S214400F70C7ED0B7A97ED0D7AD7ED0B7A77EE277A99
S214400F80B7EE007A77EE677AC7ED027A97ED0F7A7A
S214400F90D7ED117A77EE677AC7ED037A97ED0E7A3A
S214400FA0D7ED127A77EE277AC7ED047A97ED0F7A67
S214400FB0D7ED117A77EE277AC7ED057A97ED107A56
S214400FC0D7ED0B7A77EE277AB7EE007A77EE677A28
S214400FD0C7ED067A97ED0C7AD7ED137A77EE677AF7
S214400FE0C7ED077A97ED0E7AD7ED127A77EE677AE5
S214400FF0C7ED087A97ED0C7AD7ED137A77EE277A15
S214401000C7ED097A97ED107AD7ED0D7A77EE277A05
S214401010B7EE007A77EE677AC7ED0A7AD7ED057AAB
S214401020F1EE677A97ED027AF0EE470AB0EE670A7D
S214401030264B9847B0EE407AD7ED177A67EE277A78
S2144010403B68C3ED007A3B681C1DD7ED097AF1EE8C
S214401050677A97ED0A7AF0EE470AB0EE670A1B4BBE
S2144010609847B0EE407AD7ED177A67EE277AC4ED08
S214401070007A3B6803F10804D7ED087AF1EE677A08
S214401080B0EE670A124B9847B0EE407AD7ED177A23
S21440109067EE277AC4ED007A3B68D3ED007AF5EE2A
S2144010A0C07AF1EE10FA00D409E03B68D3ED007A3E
S2144010B09FED087A77EE877A3B68C3ED007A00BFEB
S2144010C06437BD4690BD00BFE02E654211DD40004E
S2144010D059DC40000000B44380B483B000AF786071
S2144010E07B68DBB2063B092B25D801A252F823F0D9
S2144010F019114000251140002B11400031114000CD
S214401100371140003711400037114000371140007A
S214401110371140001F1140004FF47A730CE04FF433
S214401120FA6309E041F2883306E042F2107303E0C6
S21440113044F6206300E0034B18460C37BD465DF886
S214401140047B704700C4090080B483B000AF786069
S2144011507B683F2B09DC3E2B1DDA0F2B27DB102B41
S21440116015DD1F3B012B22D813E0B3F5FA7F18D0CC
S214401170B3F5FA7F04DC7D2B0FD0FA2B0FD016E0A8
S214401180B3F57A7F0FD0B3F5FA6F0ED00FE0E023B9
S2144011900FE0C0230DE0A0230BE0802309E060238E
S2144011A007E0402305E0202303E0002301E04FF062
S2144011B0FF3318460C37BD465DF8047B7047000089
S2144011C080B483B000AF78607B68023B0E2B29D892
S2144011D001A252F823F000BF15124000251240002D
S2144011E019124000251240002512400025124000EA
S2144011F01D124000251240002512400025124000D6
S21440120025124000251240002512400025124000BD
S21440121021124000602307E0402305E0202303E03E
S214401220002301E04FF0FF3318460C37BD465DF80B
S214401230047B704780B485B000AF78607B681B68DD
S214401240FB60FA89BB89D31A9BB218461437BD4651
S2144012505DF8047B7047000080B58EB000AF002379
S2144012607B633A4607F11803114618464A4B98479F
S21440127078634A49786B4A4B98474A4903204A4B19
S214401280984707F118031846484B984778634849EB
S214401290786B434B984747490320434B984746490A
S2144012A00320414B9847454B98477863444B9847B3
S2144012B002467B6B13437B634249786B384B9847B7
S2144012C03C490320384B98473F490320364B9847C4
S2144012D03E4B984778633E49786B314B9847354943
S2144012E00320314B98473B4903202F4B98473A49B8
S2144012F003202D4B9847394903202B4B98473849B4
S2144013000320294B984737490320274B98473649AF
S2144013100320254B984735490320234B98473449AB
S2144013200320214B9847334903201F4B98473249A7
S21440133003201D4B98472B4903201B4B98472F49AA
S2144013400320194B984727490320174B98472C49A9
S2144013500320154B984723490320134B98472949A8
S2144013600320114B9847284B1B6803F00103002BC2
S214401370F9D0264B984778632549786B084B9847B1
S214401380244B9847204B1B6823F001031E4A1360EA
S214401390214B9847E7E700BF1D14400058314100F5
S2144013A05D154000743141002579400045034000FA
S2144013B090314100B4314100B8314100E104400071
S2144013C0F5064000D4314100FC314100FD034000A9
S2144013D0183241003C3241007032410094324100A4
S2144013E0D0324100F8324100FC3241001033410017
S2144013F02033410034334100483341005C334100E0
S2144014009C334100BC3341006C390020B907400092
S214401410D0334100494940007149400080B584B00E
S21440142000AF786039600023FB601F4B9847002070
S2144014301E4B98471E4903201E4B984700221E49C4
S21440144000201E4B984701201D4B98470246FB68DC
S2144014501343FB601B481C4B98470246FB681343EC
S214401460FB600020194B98477B6800221A607B6817
S214401470174A5A607B68174A9A607B684FF4004266
S2144014801A617B684FF400425A617B6801221A76E3
S2144014907868114B98470246FB681343FB60FB682D
S2144014A018461037BD4680BD0D494000B501400086
S2144014B099154000E1784000DD144000194D400089
S2144014C0314A400040420F00C5614000456140003F
S2144014D0250240008D024000E501400090B587B0EF
S2144014E000AF786039600020184B984703460C469A
S2144014F0C7E902343B68002B1AD11548154B98476C
S2144015000346402B14D0124B5B88FB82FB8A03F0C9
S2144015103F02D7E902340E490132D2000A44C2E9FA
S21440152000340B4B5B889BB201339AB2084B5A800F
S21440153001223B6802FA03F3074A126813431A462D
S214401540054B1A6000BF1C37BD4690BDD1634000B6
S214401550D0480020351240006C39002090B585B048
S21440156002AF786039607B68002B0BDA7868074BEF
S2144015709847034600937B683A6805490120054C26
S214401580A047FEE700BF0C37BD4690BDF177400050
S214401590303641002579400090B587B000AFF860FE
S2144015A0B9607A6000237B617B69184A98187B692A
S2144015B0C3F580717B68BA68154CA04703461A4647
S2144015C07B6913447B617B69FF2B19D87B690F4A83
S2144015D098187B69C3F580730E4A19460E4B984798
S2144015E003461A467B6913447B617B69FF2B09D807
S2144015F07B699BB21A4605490020084B984702E093
S21440160000BF00E000BF1C37BD4690BD70390020CB
S214401610E91441004436410061FE4000C576400072
S21440162098B500AF0020034B984703460C46184633
S214401630214698BDD163400080B500AF014B984726
S21440164000BF80BD4949400080B500AF014B984778
S21440165000BF80BD7149400080B582B000AF786061
S2144016607868034B984700BF0837BD4680BD00BF2B
S2144016705D4A400090B583B000AF78600B46FB7083
S214401680FB1C012276217868034CA0470346184687
S2144016900C37BD4690BD00BFFD394000B0B586B0A2
S2144016A000AFF860B9607A6000237B614FF408624F
S2144016B00021F868224B9847FA68BB6814461D46D6
S2144016C00FCD0FC495E8070084E8070040F6B83011
S2144016D01C4B9847F8681C4B984702467B69134357
S2144016E07B617B69002B01D07B6925E0FB687A68CB
S2144016F05A62F868154B984702467B6913437B61EC
S214401700FB6803F658024FF0FF334FF00004C2E97F
S2144017100034FB6803F506624FF0FF334FF00004D9
S214401720C2E90034FB6803F678024FF0FF334FF00F
S2144017300004C2E900347B6918461837BD46B0BD80
S2144017403DFA4000591640003933400031344000DD
S21440175090B585B000AF78600023FB6001217868C3
S214401760644B98470246FB681343FB6007F10A0345
S21440177001227A217868604CA0470246FB681343F2
S214401780FB6007F1090301227C2178685A4CA04788
S2144017900246FB681343FB6000217868554B984728
S2144017A00246FB681343FB600123FB7207F10B0301
S2144017B0012211217868514CA0470246FB6813432A
S2144017C0FB60FB68002B01D0FB688EE04FF47A701C
S2144017D04B4B984701217868464B98470246FB6832
S2144017E01343FB6007F10A0301227A217868434CD1
S2144017F0A0470246FB681343FB60002178683D4BD8
S21440180098470246FB681343FB6007F10B0301222F
S2144018102D217868384CA0470246FB681343FB608E
S214401820FB7A03F01003002B02D16FF00B035CE051
S2144018307868344B9847012178682E4B9847024683
S214401840FB681343FB6007F1090301227C2178689B
S2144018502A4CA0470246FB681343FB6007F10B0384
S21440186001227B217868244CA0470246FB6813433C
S214401870FB60FB7A23F00603DBB2FB72FB7A43F095
S2144018800203DBB2FB7207F10B0301227B2178686F
S2144018901A4CA0470246FB681343FB600021786859
S2144018A0144B98470246FB681343FB6007F10B0353
S2144018B001224C217868104CA0470246FB6813432F
S2144018C0FB60FB7A03F01003DAB27B6883F8682883
S2144018D07B681B7E022B07D17B68DB68786898475D
S2144018E00246FB681343FB60FB6818461437BD4648
S2144018F090BD00BF7516400031394000FD394000AC
S214401900591640006938400090B583B000AF786003
S21440191039603B68012275217868034CA04703462E
S21440192018460C37BD4690BD3139400090B585B05D
S21440193000AF78600B46FB700023FB6007F10B039B
S21440194001224D217868124CA0470246FB6813439B
S214401950FB60FB78002B05D1FB7A23F00803DBB253
S214401960FB7204E0FB7A43F00803DBB2FB7207F13C
S2144019700B0301224D217868064CA0470246FB68BF
S2144019801343FB60FB6818461437BD4690BD00BF46
S21440199031394000FD39400090B587B000AF7860DF
S2144019A000237B6107F10A0301224E2178686C4CC4
S2144019B0A04702467B6913437B61BB7A03F003036F
S2144019C0FB74BB7A03F00C03BB74FB7C022B24D164
S2144019D0BB7C002B02D0BB7C042B1ED107F1090335
S2144019E00122502178685E4CA04702467B6913432B
S2144019F07B617B7A03F00F037B747B7C1846594BE4
S214401A009847F86008217868574B984702467B69A4
S214401A1013437B61F868554B9847FB7C002B43D1BA
S214401A20BB7C002B40D17B6893F86A38002B29D0CA
S214401A3007F10B0301225F217868494CA047024614
S214401A407B6913437B61FB7A43F00103DBB2FB7295
S214401A50FB7A43F00203DBB2FB727B6893F869388B
S214401A60002B04D0FB7A43F01003DBB2FB7207F185
S214401A700B0301225F2178683D4CA04702467B69F4
S214401A8013437B6107F1080301224C217868344CEC
S214401A90A04702467B6913437B613B7A03F0100301
S214401AA0DAB27B6883F8682807F10B0301225221DB
S214401AB078682B4CA04702467B6913437B61FB7AD0
S214401AC003F00F03DBB2FB727B6893F87428FB7A53
S214401AD01343DBB2FB7207F10B03012252217868F5
S214401AE0234CA04702467B6913437B6107F10A03F8
S214401AF001224E2178681A4CA04702467B69134360
S214401B007B61BB7A23F00303DBB2BB72BB7A43F044
S214401B100303DBB2BB7207F10A0301224E21786849
S214401B20134CA04702467B6913437B61C8200F4B8A
S214401B309847FB7C002B0DD17B6893F86A38002BC6
S214401B4008D00C4B984703460C467A6802F5066266
S214401B50C2E900347B6918461C37BD4690BD00BFBD
S214401B6031394000292B40002D19400059164000BD
S214401B70FD3940002116400090B587B000AF786030
S214401B8000237B6100233B6107F10E0301224E21B7
S214401B9078682F4CA04702467B6913437B61BB7B2A
S214401BA003F00C03FB73FB7B002B0AD17B6893F896
S214401BB06A38002B05D07B68012283F86B28012306
S214401BC03B61BB7B23F00303DBB2BB73BB7BBB73C6
S214401BD007F10E0301224E2178681E4CA04778611B
S214401BE0002178681C4B984702467B6913437B610B
S214401BF03B69002B26D07B6893F86A38002B21D0AF
S214401C0007F10D0301225F217868114CA047024678
S214401C107B6913437B617B7B23F01303DBB27B73CF
S214401C2007F10D0301225F2178680A4CA04702465F
S214401C307B6913437B617868084B984702467B690B
S214401C4013437B617B6918461C37BD4690BD00BF79
S214401C5031394000FD3940002D194000AD2D40007F
S214401C6090B58BB000AF786000237B627B6803F64C
S214401C707803D3E90034002C08BFB3F1FF3F2AD0E5
S214401C80834B9847C7E906017B6803F67803D3E998
S214401C900012D7E90634A24208BF994207D3D7E9D3
S214401CA0063413F1FF3344F10004C7E906347B6879
S214401CB003F67803D3E90034D7E90612CB1A62EB71
S214401CC0040474494FF00002A24208BF994202D36E
S214401CD06FF00903D8E007F10E0301224E21786821
S214401CE06D4CA04702467B6A13437B62BB7B03F086
S214401CF00C03FB75BB7B03F00303BB75BB7D022B5C
S214401D0024D1FB7D002B02D0FB7D042B1ED107F196
S214401D100D030122502178685F4CA04702467B6A3B
S214401D2013437B627B7B03F00F037B757B7D1846FA
S214401D305A4B9847386108217868594B984702466D
S214401D407B6A13437B623869564B9847BB7D002BB2
S214401D5043D1FB7D002B40D17B6893F86A38002B3B
S214401D6029D007F10F0301225F2178684A4CA0472B
S214401D7002467B6A13437B62FB7B43F00103DBB284
S214401D80FB73FB7B43F00203DBB2FB737B6893F889
S214401D906938002B04D0FB7B43F01003DBB2FB73A7
S214401DA007F10F0301225F2178683F4CA0470246A7
S214401DB07B6A13437B6207F10C0301224C2178684F
S214401DC0354CA04702467B6A13437B623B7B03F05D
S214401DD01003DAB27B6883F8682807F10F03012204
S214401DE0522178682C4CA04702467B6A13437B629C
S214401DF0FB7B23F00F03DBB2FB737B6893F87528FD
S214401E00FB7B1343DBB2FB7307F10F030122522126
S214401E107868254CA04702467B6A13437B6207F1ED
S214401E200E0301224E2178681B4CA04702467B6A6F
S214401E3013437B62BB7B23F00C03DBB2BB73BB7BE1
S214401E4043F00C03DBB2BB7307F10E0301224E21B5
S214401E507868154CA04702467B6A13437B62C820CD
S214401E60104B9847FB7D002B0DD17B6893F86A3862
S214401E70002B08D0064B984703460C467A6802F675
S214401E805802C2E900347B6A18462C37BD4690BDDE
S214401E9021164000F049020031394000292B40000D
S214401EA02D19400059164000FD39400090B587B0C6
S214401EB000AF786000237B6100233B6107F10D0390
S214401EC001224E217868484CA04702467B6913435E
S214401ED07B617B7B03F00303FB73FB7B002B0AD108
S214401EE07B6893F86A38002B05D07B68012283F81C
S214401EF06B2801233B61FB7B022B07D108217868C6
S214401F003A4B984702467B6913437B617B7B23F0C1
S214401F100C03DBB27B737B7B7B7307F10D030122E3
S214401F204E217868324CA04702467B6913437B615A
S214401F30304B984703460C467A6802F67802C2E968
S214401F400034FB7B022B1FD107F10B0301225021EB
S214401F507868254CA04702467B6913437B61FB7A31
S214401F6003F00F03BB73BB7B1846234B98470346CF
S214401F705B001846214B9847002178681B4B9847D2
S214401F8002467B6913437B613B69002B26D07B6806
S214401F9093F86A38002B21D007F10C0301225F2109
S214401FA07868114CA04702467B6913437B613B7BB4
S214401FB023F01303DBB23B7307F10C0301225F21CE
S214401FC078680B4CA04702467B6913437B61786870
S214401FD00B4B984702467B6913437B617B691846E7
S214401FE01C37BD4690BD00BF313940002D1940001A
S214401FF0FD39400021164000292B4000591640006C
S214402000AD2D400090B585B000AF78600B46FB70B4
S2144020100023FB6007F10B03012254217868104C23
S214402020A0470246FB681343FB60FB7A23F0080395
S214402030DBB2FB72FA7AFB781343DBB2FB7207F132
S2144020400B03012254217868064CA0470246FB68E1
S2144020501343FB60FB6818461437BD4690BD00BF6F
S21440206031394000FD39400090B585B000AF78600A
S21440207039600023FB6007F1080300210A461A80F6
S2144020800A469A7007F10803022265217868434C95
S214402090A0470246FB681343FB6004217868404B28
S2144020A098470246FB681343FB6007F10803023378
S2144020B001224D217868394CA0470246FB681343FD
S2144020C0FB6000217868364B98470246FB6813430E
S2144020D0FB603B7A9B1103F00103DAB23B681A704F
S2144020E03B7ADB1003F00103DAB23B685A703B7A66
S2144020F09B1003F00103DAB23B689A703B7A5B10A0
S21440210003F00103DAB23B68DA707B7ADB1003F047
S2144021100103DAB23B681A717B7A03F00103DAB244
S2144021203B685A717B7A5B1003F00103DAB23B6876
S2144021309A717B7A9B1003F00103DAB23B68DA713E
S214402140BB7A5B1103F00103DAB23B681A72BB7AC2
S2144021501B1103F00103DAB23B685A72BB7ADB10FC
S21440216003F00103DAB23B689A72BB7A5B1003F065
S2144021700103DAB23B68DA72BB7A9B1003F00103C4
S214402180DAB23B681A73BB7A03F00103DAB23B68F3
S2144021905A73FB6818461437BD4690BD3139400027
S2144021A07516400090B585B000AF78603960002362
S2144021B0FB6007F1080300210A461A800A469A7017
S2144021C0042178686A4B98470246FB681343FB60D5
S2144021D007F1080303224F217868664CA047024661
S2144021E0FB681343FB603B7A23F02E03DBB23B7263
S2144021F03B7A5AB23B681B78002B01D0202300E084
S214402200002313435BB2DBB23B723B7A5AB23B6865
S2144022105B78002B01D0082300E0002313435BB219
S214402220DBB23B723B7A5AB23B689B78002B01D0BC
S214402230042300E0002313435BB2DBB23B723B7ADD
S2144022405AB23B68DB78002B01D0022300E0002323
S21440225013435BB2DBB23B727B7A23F01E03DBB2E6
S2144022607B727B7A5AB23B681B79002B01D01023D5
S21440227000E0002313435BB2DBB27B727B7A5AB238
S2144022803B685B79002B01D0022300E00023134318
S2144022905BB2DBB27B727B7A5AB23B689B79002B8F
S2144022A001D0042300E0002313435BB2DBB27B7211
S2144022B07B7A5AB23B68DB79002B01D0082300E0DA
S2144022C0002313435BB2DBB27B72BB7A23F0390345
S2144022D0DBB2BB72BB7A5AB23B681B7A002B01D08A
S2144022E0202300E0002313435BB2DBB2BB72BB7A11
S2144022F05AB23B685B7A002B01D0102300E00023E3
S21440230013435BB2DBB2BB72BB7A5AB23B689B7A72
S214402310002B01D0082300E0002313435BB2DBB25E
S214402320BB72BB7A5AB23B685B7B002B14BF01235F
S2144023300023DBB25BB213435BB2DBB2BB7207F186
S214402340080303224F2178680B4CA0470246FB68DF
S2144023501343FB6000217868054B98470246FB68AC
S2144023601343FB60FB6818461437BD4690BD00BF5C
S2144023707516400031394000FD39400090B585B0B3
S21440238000AF786039600023FB6007F10803002146
S2144023900A461A800A469A7007F108030222652107
S2144023A07868824CA0470246FB681343FB600421D2
S2144023B078687F4B98470246FB681343FB6007F1FB
S2144023C00803023301224D217868784CA047024624
S2144023D0FB681343FB603B7A23F04E03DBB23B7251
S2144023E03B7A5AB23B681B78002B01D0402300E072
S2144023F0002313435BB2DBB23B723B7A5AB23B6874
S2144024005B78002B01D0082300E0002313435BB227
S214402410DBB23B723B7A5AB23B689B78002B01D0CA
S214402420042300E0002313435BB2DBB23B723B7AEB
S2144024305AB23B68DB78002B01D0022300E0002331
S21440244013435BB2DBB23B727B7A23F00F03DBB203
S2144024507B727B7A5AB23B681B79002B01D00823EB
S21440246000E0002313435BB2DBB27B727B7A5AB246
S2144024703B685B79002B14BF01230023DBB25BB2C1
S21440248013435BB2DBB27B727B7A5AB23B689B7972
S214402490002B01D0022300E0002313435BB2DBB2E3
S2144024A07B727B7A5AB23B68DB79002B01D00423DF
S2144024B000E0002313435BB2DBB27B72BB7A23F0AF
S2144024C03F03DBB2BB72BB7A5AB23B681B7A002B27
S2144024D001D0202300E0002313435BB2DBB2BB7283
S2144024E0BB7A5AB23B685B7A002B01D0102300E0DF
S2144024F0002313435BB2DBB2BB72BB7A5AB23B6873
S2144025009B7A002B01D0082300E0002313435BB2E4
S214402510DBB2BB72BB7A5AB23B68DB7A002B01D087
S214402520022300E0002313435BB2DBB2BB72BB7AEC
S2144025305AB23B681B7B002B01D0042300E00023EB
S21440254013435BB2DBB2BB72BB7A5AB23B685B7B6F
S214402550002B14BF01230023DBB25BB213435BB2F4
S214402560DBB2BB7207F10803023301224D217868C3
S214402570104CA0470246FB681343FB600021786876
S2144025800B4B98470246FB681343FB6007F1080372
S214402590022265217868074CA0470246FB68134331
S2144025A0FB60FB6818461437BD4690BD3139400085
S2144025B075164000FD39400090B591B000AF786088
S2144025C00023FB63002387F82E3000237B851023EF
S2144025D03B8707F12F0301222D217868994CA047AD
S2144025E00246FB6B1343FB63FB6B002B01D0FB6B7C
S2144025F090E297F82F3003F00403002B06D197F8AB
S2144026002F3003F00203002B00F0838207F12C03E7
S21440261002222E2178688B4CA0470246FB6B134360
S214402620FB63FB6B002B01D0FB6B73E207F12A02C6
S21440263007F12C0319460020834B98477B8D002BCF
S21440264000F067820023FB867B6893F86938002B8E
S21440265001D014233B877B681B7E022B24D10023AA
S2144026607B871CE0398F7B8F3A8F02FB03F3403326
S2144026707A68134404330A4630217868714CA04780
S2144026800246FB6B1343FB63FB6B002B04D078685E
S2144026906E4B9847FB6B3DE27B8F01337B877B8D90
S2144026A07A8F9A42DED316E03B8F7A8D02FB03F395
S2144026B01A467B68443330217868624CA04702460D
S2144026C0FB6B1343FB63FB6B002B04D078685F4BBC
S2144026D09847FB6B1EE200237B8715E20023FB60D6
S2144026E0FB8E40337A68134404333B63FB8E0133DE
S2144026F0FB863B6B1B7823F07F03DBB2002B05D0B9
S2144027007868524B98474FF0FF3303E23B6B1B7899
S21440271003F04003DBB2002B2ED07B6893F86808AA
S214402720FB8E40337A681344191D07F10C030633B9
S2144027301A46454B98477B6893F86808FB8E0233E9
S21440274040337A681344191D07F10C0308331A46C0
S2144027503D4B98477B6893F86808FB8E04334033BC
S2144027607A681344191D07F10C030A331A46364B90
S2144027709847FB8E0633FB863B6B1B7803F02003A3
S214402780DBB2002B2ED07B6893F86808FB8E403374
S2144027907A681344191D07F10C030C331A462A4B6A
S2144027A098477B6893F86808FB8E023340337A6814
S2144027B01344191D07F10C030E331A46224B984753
S2144027C07B6893F86808FB8E043340337A6813447A
S2144027D0191D07F10C0310331A461B4B9847FB8E06
S2144027E00633FB863B6B1B7803F04003DBB2002BC3
S2144027F006D13B6B1B7803F02003DBB2002B3BD0AB
S2144028003B6B1B7803F01003DBB2002B20D07B68B9
S21440281093F86808FB8E40337A681344191D07F115
S2144028200C0312331A46084B9847FB8E0233FB863E
S214402830B7F91E3013F5004F1ED0FB6843F0100367
S214402840FB6019E03139400011384000AD2D4000A2
S214402850FB8E7A68134493F844305BB21BB2FB831A
S214402860FB8E0133FB86B7F91E3013F1800F03D081
S214402870FB6843F01003FB603B6B1B7803F00803D8
S214402880DBB2002B06D13B6B1B7803F00403DBB2B4
S214402890002B24D07B6893F86808FB8E40337A6818
S2144028A01344191D07F10C0304331A469B4B9847F3
S2144028B0FB8E0233FB863B6B1B7803F00403DBB2D4
S2144028C0002B08D07B6893F86B38002B03D1FB684D
S2144028D043F00403FB607B68002283F86B283B6B65
S2144028E01B7803F04003DBB2002B6CD0B7F91230F4
S2144028F013F5004F67D0B7F9143013F5004F62D088
S214402900B7F9163013F5004F5DD03B6B1B7803F0DC
S2144029101003DBB2002B1FD0FB8E7A68134493F86B
S21440292044301B09DBB25BB287F82030FB8E0133A4
S2144029307A68134493F844301B09DBB25BB287F8DD
S2144029402130FB8E02337A68134493F844301B09D7
S214402950DBB25BB287F822307B6803F50663D3E9C7
S2144029600034002C08BFB3F1FF3F04D1FB6843F0AE
S2144029700103FB6027E03B6B1B7803F00403DBB2EC
S214402980002B20D1664B98470A4601467B6803F5E4
S2144029900663D3E90034CB1A62EB040444F61F61A5
S2144029A04FF00002A24208BF99420CD27B6803F562
S2144029B006624FF0FF334FF00004C2E90034FB6874
S2144029C043F00103FB603B6B1B7803F02003DBB254
S2144029D0002B6FD0B7F9183013F5004F6AD0B7F90F
S2144029E01A3013F5004F65D0B7F91C3013F5004F79
S2144029F060D03B6B1B7803F01003DBB2002B22D079
S214402A00FB8E7A68134493F844305BB203F00F03AE
S214402A105BB287F82330FB8E01337A68134493F811
S214402A2044305BB203F00F035BB287F82430FB8E72
S214402A3002337A68134493F844305BB203F00F03D2
S214402A405BB287F825307B6803F65803D3E9003439
S214402A50002C08BFB3F1FF3F04D1FB6843F00203EC
S214402A60FB6027E03B6B1B7803F00403DBB2002BD4
S214402A7020D12B4B98470A4601467B6803F65803FD
S214402A80D3E90034CB1A62EB04044EF65F214FF0D4
S214402A900002A24208BF99420CD27B6803F6580255
S214402AA04FF0FF334FF00004C2E90034FB6843F0B8
S214402AB00203FB603B6B1B7803F01003DBB2002B7A
S214402AC002D0FB8E0333FB867B685B6A002B05D007
S214402AD07B685B6A07F10C02104698477B681B7E52
S214402AE0002B03D07B681B7E022B0AD107F12E03F6
S214402AF00122752178680B4CA0470246FB6B1343B6
S214402B00FB637B8F01337B877B8D7A8F9A42FFF402
S214402B10E5AD7B8D18464437BD4690BD1138400024
S214402B2021164000FD39400080B483B000AF786085
S214402B307B68013B0E2B44D801A252F823F000BF1D
S214402B407D2B4000812B4000852B4000892B400088
S214402B508D2B4000932B40009F2B4000A52B400020
S214402B60AB2B4000B12B4000B72B4000BB2B4000A6
S214402B70BF2B4000C32B4000992B4000202321E070
S214402B803F231FE07D231DE0FA231BE04FF4FA733A
S214402B9018E04FF47A7315E04FF4FA6312E041F20E
S214402BA088330FE042F210730CE044F6206309E0ED
S214402BB049F6404306E0064B04E0064B02E0064B6F
S214402BC000E0064B18460C37BD465DF8047B704760
S214402BD0803801000071020000E2040000C40900D1
S214402BE090B585B000AF78600B46FB700023FB6065
S214402BF007F1090301224E2178681F4CA047024680
S214402C00FB681343FB607B7A03F00303FB72FB7A9B
S214402C10022B07D07B68D3F86C385A1C7B68C3F805
S214402C206C2803E07B680022C3F86C2807F10A038F
S214402C30012250217868104CA0470246FB68134397
S214402C40FB60BB7A23F00F03DBB2BB72BA7AFB7829
S214402C501343DBB2BB7207F10A03012250217868A6
S214402C60064CA0470246FB681343FB60FB681846C9
S214402C701437BD4690BD00BF31394000FD39400095
S214402C8090B585B000AF78600B46FB700023FB60C4
S214402C9007F10B0301224F217868104CA0470246EB
S214402CA0FB681343FB60FB7A23F00F03DBB2FB7237
S214402CB0FA7AFB781343DBB2FB7207F10B0301226F
S214402CC04F217868064CA0470246FB681343FB60DA
S214402CD0FB6818461437BD4690BD00BF31394000EA
S214402CE0FD39400090B585B000AF78600B46FB706C
S214402CF00023FB6007F10B03012250217868104C3B
S214402D00A0470246FB681343FB60FB7A03F01F03B1
S214402D10DBB2FB72FA7AFB781343DBB2FB7207F145
S214402D200B03012250217868064CA0470246FB68F8
S214402D301343FB60FB6818461437BD4690BD00BF82
S214402D4031394000FD39400090B585B000AF78601D
S214402D500B46FB700023FB6007F10B0301224F215B
S214402D607868104CA0470246FB681343FB60FB7A2A
S214402D7003F01F03DBB2FB72FA7AFB781343DBB235
S214402D80FB7207F10B0301224F217868064CA047DF
S214402D900246FB681343FB60FB6818461437BD4683
S214402DA090BD00BF31394000FD39400090B587B036
S214402DB000AF786000237B6107F10F0301224E21AC
S214402DC078682C4CA04702467B6913437B61FB7BAB
S214402DD003F00C03FB74FB7B03F00303BB74FB7C28
S214402DE0002B02D1BB7C002B10D0BB7C022B0DD01D
S214402DF002237B7407F1110301224B2178681E4C95
S214402E00A04702467B6913437B612DE007F1100320
S214402E10012216217868174CA04702467B69134367
S214402E207B6100237B7407F1110301221621786829
S214402E30114CA04702467B6913437B6107F11003A0
S214402E400122162178680C4CA04702467B69134342
S214402E507B6107F11103012275217868054CA04774
S214402E6002467B6913437B617B6918461C37BD4627
S214402E7090BD00BF31394000FD39400090B585B067
S214402E8000AF78600023FB607B6893F85438002BD3
S214402E9022D107F10B03012254217868154CA04734
S214402EA00246FB681343FB60FB7A23F01003DBB259
S214402EB0FB72FB7A43F01003DBB2FB7207F10B03A5
S214402EC00122542178680C4CA0470246FB68134305
S214402ED0FB60C820094B98477B6893F85438013309
S214402EE0DAB27B6883F85428FB6818461437BD4628
S214402EF090BD00BF31394000FD39400059164000B2
S214402F0090B585B000AF78600023FB607B6893F88F
S214402F105438002B1CD107F10B030122542178684A
S214402F20124CA0470246FB681343FB60FB7A23F033
S214402F301003DBB2FB72FB7AFB7207F10B03012234
S214402F40542178680A4CA0470246FB681343FB604E
S214402F507B6893F85438013BDAB27B6883F8542890
S214402F60FB6818461437BD4690BD00BF3139400057
S214402F70FD39400090B585B000AF786039600023D9
S214402F80FB6004233B7207F1080301224B2178685B
S214402F90184CA0470246FB681343FB600121786843
S214402FA0154B98470246FB681343FB6007F108033E
S214402FB0032262217868114CA0470246FB681343FF
S214402FC0FB60002178680C4B98470246FB68134329
S214402FD0FB60BB7A1B0403F470227B7A1B0213440B
S214402FE03A7A1A443B681A60FB6818461437BD465E
S214402FF090BD00BFFD394000751640003139400095
S21440300090B585B000AF78600023FB6007F10B03F6
S21440301001224D217868094CA0470246FB681343BD
S214403020FB60FB7A03F00403002B01D0012300E091
S214403030002318461437BD4690BD00BF31394000C6
S21440304080B483B000AF78607B68002283F869283C
S214403050002318460C37BD465DF8047B70470000D9
S21440306090B589B000AF78600B46FB700023FB61DB
S21440307007F10C0300221A605A609A609A817B68B6
S214403080FA7883F86A28FB78002B00F09480012BAE
S21440309040F0D58007F11B0301224C2178686C4C28
S2144030A0A0470246FB691343FB61FB7E43F04003A7
S2144030B0DBB2FB76FB7E23F02003DBB2FB7607F128
S2144030C01B0301224C217868624CA0470246FB69EC
S2144030D01343FB618023FB7607F11B030122162175
S2144030E078685C4CA0470246FB691343FB6107F1D6
S2144030F01B03012254217868554CA0470246FB69C1
S2144031001343FB61FB7E43F00103DBB2FB7607F122
S2144031101B030122542178684E4CA0470246FB69A7
S2144031201343FB6107F11B0301225F217868484C7B
S214403130A0470246FB691343FB61FB7E23F0030373
S214403140DBB2FB76FB7E43F00C03DBB2FB76FB7E0A
S21440315043F02003DBB2FB7607F11B0301225F211D
S21440316078683C4CA0470246FB691343FB61012349
S214403170FB7607F11B03012260217868354CA04797
S2144031800246FB691343FB6107F10C031946786856
S214403190314B98470246FB691343FB6100237B7320
S2144031A007F10C03194678682C4B98470246FB6992
S2144031B01343FB6146E00023FB7607F11B03012225
S2144031C016217868234CA0470246FB691343FB61EF
S2144031D007F11B0301225F2178681D4CA047024679
S2144031E0FB691343FB61FB7E23F00303DBB2FB76F4
S2144031F0FB7E43F00C03DBB2FB7607F11B03012298
S2144032005F217868134CA0470246FB691343FB6175
S21440321007F10C03194678680F4B98470246FB693E
S2144032201343FB6101237B7307F10C03194678684F
S2144032300A4B98470246FB691343FB6102E04FF096
S214403240FF33FB61FB6918462437BD4690BD00BF7F
S21440325031394000FD394000692040007D23400060
S21440326090B587B000AF786000233B614FF0807325
S2144032707B6107F10E03012254217868184CA04761
S21440328002463B6913433B613B69002B02DA4FF031
S214403290FF3320E0BB7B03F00803FB737868114BD9
S2144032A098470346002B01D00F4B14E078680F4B2D
S2144032B098470346002B02D14FF080737B61FB7B1F
S2144032C0082B02D17B691B0105E0FB7B002B01D15B
S2144032D07B6900E0002318461C37BD4690BD00BF02
S2144032E031394000013040000080841E9537400050
S2144032F080B584B000AF78604FF08073FB6078682C
S2144033000A4B98470346002B01D0094B09E07868E2
S214403310084B98470346002B02D14FF08073FB6062
S214403320FB6818461037BD4680BD00BF01304000E0
S2144033300080841E9537400090B585B000AF786019
S2144033400023FB6001217868364B98470246FB68AD
S2144033501343FB607B681B7E012B43D0022B1DD0A2
S214403360002B4DD107F10B0301227C2178682E4CAF
S214403370A0470246FB681343FB60FB7A23F0030337
S214403380DBB2FB7207F10B0301227C217868274CE5
S214403390A0470246FB681343FB6035E007F10B038A
S2144033A001227C217868204CA0470246FB681343E4
S2144033B0FB60FB7A43F00C03DBB2FB7207F10B03B6
S2144033C001227C217868194CA0470246FB681343CB
S2144033D0FB607B68DB68786898470246FB68134367
S2144033E0FB6011E00223FB7207F10B0301227A21F6
S2144033F078680E4CA0470246FB681343FB6003E028
S214403400FB6863F00A03FB6000217868054B984729
S2144034100246FB681343FB60FB6818461437BD46FC
S21440342090BD00BF7516400031394000FD39400060
S21440343090B58BB000AF786000237B62B44B07F149
S2144034400C040FCB07C423807868B24B98470246DB
S2144034507B6A13437B6207F11F0301224F21786882
S214403460AD4CA04702467B6A13437B6207F11E03BE
S214403470012250217868A84CA04702467B6A134335
S2144034807B62FB7F03F01F03DBB2FB77FB7FFB77A0
S214403490BB7F03F01F03DBB2BB77BB7F43F0400329
S2144034A0DBB2BB7707F11F0301224F2178689B4CA4
S2144034B0A04702467B6A13437B6207F11E03012244
S2144034C050217868954CA04702467B6A13437B623E
S2144034D0002387F8233007F123030122162178685A
S2144034E08E4CA04702467B6A13437B6207F1230358
S2144034F0012262217868884CA04702467B6A1343C3
S2144035007B6297F8233023F07003DBB287F82330D2
S21440351007F12303012262217868804CA0470246C7
S2144035207B6A13437B6207F11D03012254217868AE
S214403530794CA04702467B6A13437B627B7F23F02D
S2144035400203DBB27B7707F11D0301225421786822
S214403550724CA04702467B6A13437B620821786818
S2144035606F4B984702467B6A13437B62012178681B
S2144035706C4B984702467B6A13437B6207F12303F2
S214403580012214217868644CA04702467B6A1343A4
S2144035907B6297F8233043F00203DBB287F8233090
S2144035A097F8233043F00103DBB287F8233007F166
S2144035B02303012214217868584CA04702467B6AB0
S2144035C013437B6207F10C0319467868564B9847BD
S2144035D002467B6A13437B6201237B730023BB73E3
S2144035E007F10C0319467868504B984702467B6AA9
S2144035F013437B6207F12303012264217868464C1B
S214403600A04702467B6A13437B6297F8233023F039
S2144036101003DBB287F8233097F8233087F823303F
S21440362007F123030122642178683C4CA0470246F8
S2144036307B6A13437B6207F123030122512178689A
S214403640354CA04702467B6A13437B6297F823308B
S21440365023F00C03DBB287F8233097F8233043F08F
S2144036600403DBB287F8233007F1230301225121FC
S21440367078682A4CA04702467B6A13437B6207F170
S2144036802303012253217868234CA04702467B6AD5
S21440369013437B6297F8233023F01803DBB287F896
S2144036A0233097F8233043F00803DBB287F8233003
S2144036B007F12303012253217868184CA04702469D
S2144036C07B6A13437B627868194B984702467B6A4D
S2144036D013437B6204217868164B984702467B6A00
S2144036E013437B620D2387F820300D2387F8213063
S2144036F00D2387F8223007F1200303224A217868F9
S214403700064CA04702467B6A13437B62002113E0C7
S214403710503641005117400031394000FD394000D5
S21440372005204000613040007D234000A521400038
S21440373041304000751640007868144B9847024662
S2144037407B6A13437B620C2387F8233007F12303FD
S2144037500122572178680E4CA04702467B6A1343E5
S2144037607B627B68102283F874287B68012283F88A
S21440377075287B68602283F872287B6800221A646A
S2144037807B6A18462C37BD4690BD00BF7516400074
S214403790FD39400090B587B000AF786000237B616C
S2144037A007F1100301224E217868184CA0470246C4
S2144037B07B6913437B6107F10F0301224D21786833
S2144037C0124CA04702467B6913437B613B7C03F067
S2144037D00C03FB743B7C03F00303BB74FB7B03F0DE
S2144037E008037B74FB7C002B02D0FB7C042B07D1A8
S2144037F0BB7C022B04D17B7C002B01D1012300E053
S214403800002318461C37BD4690BD00BF31394000E6
S21440381080B485B000AF0346B9607A60FB73FB7B2B
S214403820102B0DD1BB681B781B021AB2BB68013344
S2144038301B781BB213431BB29AB27B681A800CE00B
S214403840BB6801331B781B021AB2BB681B781BB2DD
S21440385013431BB29AB27B681A8000BF1437BD462A
S2144038605DF8047B7047000090B585B000AF786087
S2144038700023FB607B68BB60B8682C4B98470346C8
S214403880002B40D1BB685C68B868BB6803F11C027B
S21440389001234D21A0470246FB681343FB60BB68EB
S2144038A05C68B868BB6803F11D0201234E21A0473F
S2144038B00246FB681343FB60BB685C68B868BB683D
S2144038C003F11E0201234F21A0470246FB68134323
S2144038D0FB60BB685C68B868BB6803F11F020123E5
S2144038E05021A0470246FB681343FB60BB685C68F8
S2144038F0B868BB6803F1200201235421A047024662
S214403900FB681343FB60BB685C68B868BB6803F140
S214403910210201237621A0470246FB681343FB6041
S214403920FB6818461437BD4690BD00BF293B400093
S214403930B0B588B000AFF8607A603B600B46FB726B
S214403940FB68BB610023FB61BB6993F82130002B09
S2144039502AD1B869274B98470346002B24D1002329
S214403960FB6115E0FB69DAB2FB7A1344DBB2194619
S214403970F868214B984778617B69002B0DD03A68F0
S214403980FB6913447A6912781A70FB690133FB614C
S214403990FA697B689A42E5D300E000BFFA697B6823
S2144039A09A4201D1002320E07A68FB69D21ABB69AB
S2144039B01B699A4202D96FF0040316E0BB695C6843
S2144039C0B869FB69DAB2FB7A1344D9B23A68FB6944
S2144039D0D5187A68FB69D31A2A46A0470346002BB7
S2144039E002D06FF0020300E0002318462037BD46A1
S2144039F0B0BD00BF293B4000BD3A400090B589B0FD
S214403A0000AFF8607A603B600B46FB72FB68BB61B8
S214403A10BB695A697B689A4202D26FF0040345E05C
S214403A200023FB6130E0FA7AFB691344762B07D11A
S214403A303A68FB6913441A78BB6983F8212020E072
S214403A40FB69DAB2FB7A1344DBB21946F868194BC5
S214403A50984778617B69002B13D0BB6993F8213077
S214403A60002B0ED1B869144B98470346012B02D160
S214403A706FF00A031AE03A68FB6913441A787B69C8
S214403A801A70FB690133FB61FA697B689A42CAD3B4
S214403A90BB699C68B869F97A7B683A68A047034670
S214403AA0002B02D06FF0020300E0002318462437B4
S214403AB0BD4690BDBD3A4000293B400080B485B02D
S214403AC000AF78600B46FB707B68FB60FB784D3B35
S214403AD0072B22D801A252F823F000BFFD3A40003F
S214403AE0033B4000093B40000F3B40001B3B40006F
S214403AF01B3B40001B3B4000153B4000FB681C3313
S214403B000CE0FB681D3309E0FB681E3306E0FB68EB
S214403B101F3303E0FB68203300E0002318461437C9
S214403B20BD465DF8047B704780B483B000AF7860D4
S214403B307B681B7E032B03D07B681B7E042B01D146
S214403B40012300E0002318460C37BD465DF8047B91
S214403B507047000090B587B000AF786000237B6167
S214403B6007F1100301224E2178681D4CA0470246FB
S214403B707B6913437B6107F10F0301224D2178686F
S214403B80174CA04702467B6913437B617B69002B39
S214403B9001DA03231FE03B7C03F00C03FB743B7C01
S214403BA003F00303BB74FB7B03F008037B74FB7CCE
S214403BB0002B04D0FB7C042B01D000230BE0BB7C05
S214403BC0032B05D0BB7C022B04D17B7C082B01D178
S214403BD0012300E0022318461C37BD4690BD00BFB7
S214403BE03139400080B582B000AF786078680A4BC3
S214403BF098470346012B05D0022B05D0002B05D154
S214403C00064B04E0064B02E0064B00E0064B184627
S214403C100837BD4680BD00BF553B4000603641007A
S214403C20643641006C3641007436410090B587B02A
S214403C3000AFF860B96087ED010AF868194B9847FD
S214403C400346BA6802339B00134404331B687B6107
S214403C5097ED017AD7ED057A27EE277ABB68D3ED44
S214403C60247A77EE277AC7ED047A0F4B386998475F
S214403C700A4601460D4B08461146984707EE100A7D
S214403C80D7ED047A77EEC77ABB68C3ED247A064B45
S214403C903869984703460C46184621461C37BD46A9
S214403CA090BD00BF553B400085EE400009EE400009
S214403CB080B582B000AF78607868084B984707EECA
S214403CC0900AF8EE677A9FED067AC7EE876AF0EEBE
S214403CD0667AB0EE670A0837BD4680BD613240005E
S214403CE00000804B80B582B000AF78607868084BA3
S214403CF0984707EE900AF8EE677A9FED067AC7EE89
S214403D00876AF0EE667AB0EE670A0837BD4680BD31
S214403D10F13240000000804B90B58BB002AFF860A7
S214403D20B9601346FB80FA6B4FF000034FF0000477
S214403D30C2E90034BB6B03F00403002B11D0FA6BCE
S214403D40D7E90C34C2E90034BB685C4A9A66BB6863
S214403D505A4ADA66BB684FF00002C3F89020002348
S214403D60A8E0F868564B98470346002B07D1FB88D7
S214403D700093D7E90C23B968F868524CA047BB6B50
S214403D8003F00103002B0AD0BB6B03F00203002BA9
S214403D9005D0F8684C4B98470346FB771BE0BB6B57
S214403DA003F00103002B02D00023FB7713E0BB6B2C
S214403DB003F00203002B02D00123FB770BE0FA6BE3
S214403DC0D7E90C34C2E90034BB684FF00002C3F8B0
S214403DD0902000236EE0FA7FBB681A3253F82230F8
S214403DE0364A93420AD1FA6BD7E90C34C2E900341A
S214403DF0BB684FF00002C3F890203EE0FB88F97F96
S214403E00BA681A3152F8212092B29B1A07EE903ABD
S214403E10F8EEE77AC7ED067AD7ED067AF5EEC07A81
S214403E20F1EE10FA07D8D7ED067A9FED287A77EEAE
S214403E30877AC7ED067AF868254B9847B0EE407A01
S214403E40D7ED067A67EE877AC7ED067A97ED060ACB
S214403E50B968F8681F4B9847C7E90401FB7FBA6802
S214403E600333DB001344D3E90012D7E904345B186C
S214403E7044EB0204FA6BC2E90034BB6B03F0010367
S214403E80002B08D0FA88BB689A66FB6BD3E90034EF
S214403E90BA68C2E90634BB6B03F00203002B08D0B5
S214403EA0FA88BB68DA66FB6BD3E90034BA68C2E9C5
S214403EB00834002318462437BD4690BDEFBEADDE1D
S214403EC00130400089434000614740000000804781
S214403ED0B13C40002D3C400090B583B000AF7860C8
S214403EE039600720164B98470246164BB3FBF2F450
S214403EF00720134B98470246124BB3FBF2F102FBE6
S214403F0001F29B1A23441A463B681A603B681A68BB
S214403F103B685A603B6800221A723B684FF00002CA
S214403F20C3F89020002239687868074B98470122EA
S214403F3039687868044B984700BF0C37BD4690BD3B
S214403F40292B4000804F12004D3F400090B484B073
S214403F5000AFF860B9601346FB71FB79BA6803336B
S214403F60DB001A444FF000034FF00004C2E900346F
S214403F70FA79BB681A32044943F8221000BF10375A
S214403F80BD4690BC704700BFEFBEADDE80B584B086
S214403F9000AF7860396039687868064B984739686A
S214403FA07868054B9847F860FB6818461037BD465A
S214403FB080BD00BFD93E400031414000F0B52DEDF8
S214403FC0028B91B000AFF860B960524B9847524BA5
S214403FD09847C7E90C0107F118031946F8684F4B94
S214403FE098474F4B984700BF4B4B984705460E4661
S214403FF0BB6819464FF00002D7E90C345B1844EB17
S2144040000204A64208BF9D42EED3424B9847424B1D
S2144040109847C7E90A0107F114031946F8683F4B69
S21440402098473F4B98477B6907EE903AB8EE678AC9
S214404030F8683C4B9847F0EE407A68EE277AC7ED32
S214404040097ABB6907EE903AB8EE678AF868354B4E
S2144040509847F0EE407A68EE277AC7ED087AF86817
S214404060304B9847B0EE407ADFED2F7A67EE277AEE
S214404070C7ED077AD7E90A12D7E90C34CB1A62EBB8
S21440408004042A4A18462146904706EE900A97EDC1
S214404090077AC6EE877AFCEEE77AC7ED017A3B7977
S2144040A087F83F3097ED097AD7ED087AB4EEE77A8D
S2144040B0F1EE10FA04D597F83F30013387F83F30D9
S2144040C0D7E90A12D7E90C34CB1A62EB0404174A34
S2144040D018462146904706EE900A97F83F3007EE7E
S2144040E0903AB8EEE77AD7ED077A27EE277AD7EDFB
S2144040F0097A37EE277AD7ED087A77EE677A86EE32
S214404100A77AF0EE477AB0EE670A4437BD46BDEC74
S214404110028BF0BD3916400021164000752F400036
S21440412049164000E53C400000008049F9ED40005B
S214404130F0B589B000AF786039600023FB617868DD
S2144041407F4B98470246FB691343FB6100237B7312
S21440415007F10F030122652178687A4CA047024692
S214404160FB691343FB6107F10D0301226521786863
S214404170754CA0470246FB691343FB6104217868EF
S214404180724B98470246FB691343FB6107F10E03E7
S21440419001224F2178686B4CA0470246FB691343C7
S2144041A0FB6107F10D0301224F217868664CA0475A
S2144041B00246FB691343FB6100217868634B9847CE
S2144041C00246FB691343FB617868614B9847024699
S2144041D0FB691343FB615F4B9847C7E9040100BF87
S2144041E05C4B984705460E46D7E9043449F64041AD
S2144041F04FF000025B1844EB0204A64208BF9D4203
S214404200EED355497868554B9847F0EE407A3B6870
S214404210C3ED037A7868524B98470246FB691343CE
S214404220FB6178684F4B98470246FB691343FB6136
S214404230484B9847C7E9040100BF464B9847054698
S2144042400E46D7E9043449F640414FF000025B1869
S21440425044EB0204A64208BF9D42EED33E4978682E
S2144042603E4B9847F0EE407A3B68C3ED047A786858
S2144042703D4B98470246FB691343FB613B681A690E
S2144042803B685A6139490520394B98473B68DA689C
S214404290384B1046984703460C461A46234636493E
S2144042A00520334CA0473B681A69324B1046984766
S2144042B003460C461A462346304905202C4CA04758
S2144042C03B685A692B4B1046984703460C461A469D
S2144042D023462B490520264CA0477868294B98470B
S2144042E00246FB691343FB6107F10F030122652178
S2144042F07868154CA0470246FB691343FB610421CE
S2144043007868124B98470246FB691343FB6107F1F6
S2144043100E0301224F2178680B4CA0470246FB69EA
S2144043201343FB6100217868084B98470246FB69B7
S2144043301343FB61FB6918462437BD46F0BD00BFFA
S2144043407D2E400031394000FD3940007516400052
S214404350611C400021164000400D0300BD3F400058
S214404360AD1E400099194000791B40008036410040
S2144043702579400031E54000B0364100D436410052
S214404380F8364100012F400090B58BB004AFF8607E
S214404390B960C7E9002300237B61BB685B685A1E8F
S2144043A0BB685A60BB685B68002B32D1BB6803F1C0
S2144043B008023B8D0293D7E90034CDE90034B96852
S2144043C0F868164B9847786107F110031946F86865
S2144043D0134B984778617B69002B05D0BB681A68F9
S2144043E0BB685A607B6915E03B69B3F1FF3F01D17A
S2144043F00A233B613B690B4AB2FBF3F13B69094A2E
S214404400B2FBF3F003FB00F3D31A0B441A46BB6827
S2144044105A607B6918461C37BD4690BD294440000B
S214404420A1464000804F1200F0B52DED028B93B0B0
S21440443004AFF860B9607A6000233B637B681B7802
S214404440002B13D1B7F86030874A1360874AD7E904
S2144044501634C2E900347B6801221A70F868844B2F
S214404460984703461A46834B1A70ECE07B681B78E5
S214404470012B40F0E880F8687D4B984703461A4683
S2144044807C4B1B789A4204D07B6800221A703B6BA8
S214404490DAE0B7F86030FB62D7E91634C7E908348B
S2144044A0714B1B6807EE903AB8EE678AF868724B15
S2144044B09847F0EE407A68EE277AC7ED077AFB6AAF
S2144044C007EE903AB8EE678AF8686B4B9847F0EE7E
S2144044D0407A68EE277AC7ED067AF868664B9847C2
S2144044E0B0EE407ADFED657A67EE277AC7ED057A5B
S2144044F05E4BD3E90034D7E90812CB1A62EB0404CA
S2144045005F4A18462146904706EE900A97ED057A90
S214404510C6EE877AFCEEE77AC7ED007A3B7887F8F6
S214404520373097ED067AD7ED077AB4EEE77AF1EEB4
S21440453010FA04D597F83730013387F837304B4BAD
S214404540D3E90034D7E90812CB1A62EB04044C4A8C
S21440455018462146904706EE900A97F8373007EE01
S214404560903AB8EEE77AD7ED057A27EE277AD7ED78
S214404570067A37EE277AD7ED077A37EE677AC6EEB1
S214404580877AC7ED047A3F4B386998473E4C32A34A
S214404590D3E90023A0470346002B30D0394B386977
S2144045A098473A4C2EA3D3E90023A0470346002B56
S2144045B025D0F8682E4B98470346BA6802339B00CE
S2144045C0134404333A691A60F868314B98470546F5
S2144045D0F868274B98470346BA6802339B00134453
S2144045E004331A68274B1046984703460C46CDE9D5
S2144045F000342A4627490520274B984720E0F8688C
S214404600234B984706461F4B3869984704460D4645
S214404610F868174B98470346BA6802339B00134422
S21440462004331A68174B1046984702460B46CDE9A6
S2144046300223CDE90045324618490120164B9847DB
S2144046407B6800221A703B6B18463C37BD46BDEC73
S214404650028BF0BDAFF300809A9999999999F13FF2
S214404660CDCCCCCCCCCCEC3F703A0020783A002075
S214404670553B4000803A0020B13C40000000804757
S214404680F9ED400031E54000BDEA4000F9EA40005F
S214404690E53B40001C374100257940005437410037
S2144046A090B589B000AF786039600023BB614FF0A9
S2144046B0FF33FB6107F10B03012250217868264C3B
S2144046C0A0470246BB691343BB6107F10A030122B8
S2144046D04F217868204CA0470246BB691343BB6114
S2144046E007F1090301224E2178681B4CA047024679
S2144046F0BB691343BB617B7A03F00303FB757B7A8C
S21440470003F00C03BB75BB7A03F00F037B75FB7A93
S21440471003F00F033B753B7D1846104B98473861B6
S2144047207B7D18460D4B9847F860FB7D002B01D0EB
S2144047303B69FB61BB7D002B05D0FA68FB699A425A
S21440474001D2FB68FB613B68FA691A60BB69184690
S2144047502437BD4690BD00BF31394000292B40006C
S21440476090B589B000AF78600023FB6107F10F0376
S214404770012250217868194CA0470246FB69134332
S214404780FB6107F10E0301224F217868134CA047C6
S2144047900246FB691343FB61FB69002B01DA0A23DF
S2144047A018E0FB7B03F00F03FB76BB7B03F00F03A5
S2144047B0BB76FB7E18460A4B98477861BB7E184608
S2144047C0074B984738617A693B699A428CBF012308
S2144047D00023DBB218462437BD4690BD3139400031
S2144047E0292B400080B582B000AF78607868034BD4
S2144047F0984700BF0837BD4680BD00BF958A400039
S21440480080B500AF0B20034B98470C20014B9847D0
S21440481000BF80BDE547400080B48DB000AF7860F3
S2144048200B46FB707B68FB62FB7887F82B30FB6A95
S2144048307B627B6A3B623B6A5B09FB61FB6903F513
S214404840001303F207735B02BB6197F82B30012B12
S21440485009D1FB6A7B617B6903F01F0301229A4002
S214404860BB691A610CE097F82B30002B08D1FB6A25
S2144048703B613B6903F01F0301229A40BB695A61C2
S214404880FB6AFB60FB6803F01F0301229A40BB698A
S214404890C3F8A02000BF3437BD465DF8047B7047A0
S2144048A080B48BB000AF78600B46FB707B687B6251
S2144048B0FB7887F823307B6AFB61FB69BB61BB6989
S2144048C05B097B617B6903F5001303F207735B02A8
S2144048D03B6197F82330002B09D07B6AFB60FB686E
S2144048E003F01F0301229A403B691A6308E07B6A83
S2144048F0BB60BB6803F01F0301229A403B695A63C2
S21440490000BF2C37BD465DF8047B704780B500AFCE
S214404910084B9847084B984701210620074B984775
S21440492001210620064B9847064B4FF400425A603A
S21440493000BF80BD617C40000148400019484000EF
S214404940A148400050140E4080B400AF074B1B688F
S214404950002B00D172B6054B1B680133034A136027
S21440496000BFBD465DF8047B704700BF843A002018
S21440497080B400AF074B1B68013B064A1360054BEB
S2144049801B68002B00D162B600BFBD465DF8047BB5
S214404990704700BF843A002080B500AF034B1B68C9
S2144049A01846034B984700BF80BD00BF883A00209A
S2144049B04561400080B500AF034B1B680021184698
S2144049C0024B984700BF80BD883A002005654000EE
S2144049D090B587B000AF0346FB80134B1B68184664
S2144049E0124B984703460C46FB6000233B610E4B38
S2144049F01B6818460D4B984703460C467B617A6900
S214404A003B699A4204D27B6903F57F43FF337B615F
S214404A107B693B617A69FB68D21AFB889A42E6D981
S214404A2000BF1C37BD4690BD883A0020D163400089
S214404A3080B582B000AF7860054A7B681360054851
S214404A40054B9847034618460837BD4680BD00BF0D
S214404A50883A002040420F00C561400080B584B0CF
S214404A6000AF7860184B98477B684FF6FE729342CB
S214404A701FD90023FB6006E04FF6FF70134B9847A4
S214404A80FB680133FB607B68114AA2FB0323DA0B09
S214404A90FB689A42F0D879680D4BA3FB0123DA0BEA
S214404AA013461B049B1ACA1A93B21846074B9847DC
S214404AB004E07B689BB21846044B9847054B9847E2
S214404AC000BF1037BD4680BD99494000D1494000DF
S214404AD001800080B549400090B583B000AF104BD0
S214404AE01A680F4B1B6803F2FF13194610460D4B0E
S214404AF098470346002B09D1094B1868084B1B689A
S214404B0003F2FF1100230022074CA0470621002095
S214404B10064B984778607B6818460C37BD4690BD74
S214404B2018010020959E40005D9D4000C19B4000BE
S214404B3080B588B000AF7860214B1B68FB600023CF
S214404B40FB610023BB6100237B610EE07B699B0019
S214404B50FA6813441A687B69DB0002FA03F3FA69C1
S214404B601343FB617B6901337B617B69032BEDDD7E
S214404B70FB69144A934214D100233B610DE03B6924
S214404B807A6813443A6904329200F9680A44126813
S214404B90D2B21A703B6901333B613B69532BEEDD61
S214404BA008E0542200217868074B9847BB6943F0D9
S214404BB00103BB61BB6918462037BD4680BD00BFB8
S214404BC0180100200A0B0B0A3DFA400090B5ADF5DF
S214404BD0057D00AF3B1D186007F1080318464FF4EB
S214404BE000731A460021454B9847454B1868444B7E
S214404BF01B6803F2FF1100230022424CA047C7F86F
S214404C000C02D7F80C32002B5DD10023C7F80832CF
S214404C1016E0D7F80832DB00FF229A403A4B1340A2
S214404C20D7F80822D2001341194607F10803D7F8EF
S214404C30082243F82210D7F808320133C7F8083262
S214404C40D7F80832032BE4D90023C7F8083214E01B
S214404C50D7F808321A1D3B1D1B681B78194607F10A
S214404C60080343F822103B1D3A1D126801321A60B1
S214404C70D7F808320133C7F80832D7F80832532B32
S214404C80E6D91F4B1B681846204B98470246D7F874
S214404C900C321343C7F80C32D7F80C32002B14D121
S214404CA0174B186807F1080100234FF40072184CA0
S214404CB0A0470246D7F80C321343C7F80C32D7F851
S214404CC00C32002B02E000BF00E000BF0C4B18681F
S214404CD00B4B1B6803F2FF11002300220D4CA0472C
S214404CE00246D7F80C321343C7F80C32D7F80C32CA
S214404CF0184607F50577BD4690BD00BF3DFA400013
S214404D0018010020F99D40000A0B0B0AE99B400061
S214404D10299C40005D9D4000B0B586B002AFF8606B
S214404D20B9607A60FB68052B00F29C804F49FA68B0
S214404D301346DB0013449B000B441C33BA681A60CE
S214404D404A49FA681346DB0013449B000B44203361
S214404D507A681A604549FA681346DB0013449B009C
S214404D600B4404331B681846414B98473F49FA6842
S214404D701346DB0013449B000B4418683B49FA6813
S214404D801346DB0013449B000B4410331C68374922
S214404D90FA681346DB0013449B000B440C331D6833
S214404DA03249FA681346DB0013449B000B44143325
S214404DB01B682A4621462F4CA0472C49FA681346C2
S214404DC0DB0013449B000B4418682849FA681346D6
S214404DD0DB0013449B000B4404331C682349FA68E9
S214404DE01346DB0013449B000B440C331D681F49DD
S214404DF0FA681346DB0013449B000B4414331A68CE
S214404E001D4B009313462A4621461C4CA047174983
S214404E10FA681346DB0013449B000B44186813499A
S214404E20FA681346DB0013449B000B440C331B68A4
S214404E301946134B98470D49FA681346DB0013444E
S214404E409B000B4418680949FA681346DB00134474
S214404E509B000B44183393F9003000221946094B47
S214404E60984700E000BF1037BD46B0BD1C0100208B
S214404E70958A4000AD834000894E4000E58640005C
S214404E80D9844000B587400090B585B000AF7860C3
S214404E9039600023FB603BE02249FA681346DB009A
S214404EA013449B000B4404331A687B689A422CD107
S214404EB01C49FA681346DB0013449B000B440C3332
S214404EC01A683B689A4220D11649FA681346DB00B6
S214404ED013449B000B441C331B68002B1CD0114909
S214404EE0FA681346DB0013449B000B441C331C68D3
S214404EF00C49FA681346DB0013449B000B442033EE
S214404F001B68F9681846A04706E0FB680133FB605B
S214404F10FB68052BC0D900E000BF00BF1437BD4674
S214404F2090BD00BF1C01002080B483B000AF786005
S214404F307B68072B25D801A252F823F05D4F40002E
S214404F40634F4000694F40006F4F4000734F400032
S214404F50774F40007B4F40007F4F40004FF4FA436E
S214404F6010E04FF400430DE04FF400430AE0084BD6
S214404F7008E0084B06E0084B04E0002302E000236C
S214404F8000E0002318460C37BD465DF8047B7047AA
S214404F9000127A000024F40000366E0180B500AF9F
S214404FA00120044B9847024640F64E6303FB02F34B
S214404FB0184680BD294F400080B500AF024B984749
S214404FC00346184680BD00BF9D4F400080B489B060
S214404FD000AF78607B68FB61FB69BB61BB695A09BF
S214404FE0FB697B617B6903F01F03012101FA03F330
S214404FF03A61FB603B69BB60BB6803F5001303F294
S21440500007735B021A46FB68536000BF2437BD46F1
S2144050105DF8047B704780B48DB000AF786039602F
S2144050207B68FB623B68BB62FB6A7B627B6A5A09B1
S214405030FB6A3B623B6A03F01F03012101FA03F35C
S214405040FA61BB61BB6A7B61FB693B613B6903F507
S214405050001303F207735B02FB607B6903F00803EF
S214405060002B03D0FB68BA695A6602E0FB68BA694F
S2144050701A667B6903F01003002B04D0FB68BA69FC
S214405080C3F8942003E0FB68BA69C3F890207B69B4
S21440509003F02003002B03D0FB68BA691A6502E0D0
S2144050A0FB68BA695A657B6903F0C003002B03D0DE
S2144050B0FB68BA691A6202E0FB68BA695A627B69A1
S2144050C003F08003002B04D0FB68BA69C3F8842041
S2144050D003E0FB68BA69C3F880207B6903F00103EC
S2144050E0002B06D0FB681A6FBB691A43FB681A6729
S2144050F006E0FB681A6FBB69DB431A40FB681A6719
S2144051007B6903F00203002B06D0FB685A6FBB692D
S2144051101A43FB685A6706E0FB685A6FBB69DB4375
S2144051201A40FB685A6700BF3437BD465DF8047BBB
S2144051307047000080B584B000AF254B1B78002B2D
S2144051403FD13B1D0C2200211846224B9847204B4E
S2144051505A691F4B9B69194610461F4B98471C4B74
S2144051605B6918461D4B9847194BDA68184B1B6904
S21440517019461046184B9847154BDB681846174B90
S2144051809847134B9B681846154B9847104B9B689F
S21440519003211846134B9847134B984703467B60AA
S2144051A00B4BDB69BB600A4B5B683A1D11461846E1
S2144051B00E4B98470346002B05D1054B01221A702B
S2144051C002E000BF00E000BF1037BD4680BD00BF14
S2144051D0F40100203DFA400017504000CD4F4000FB
S2144051E0497F4000B1804000B94F40006190400088
S2144051F080B588B000AF3B600346FB710B46BB7181
S2144052001346BB800023FB77FB793B76BB793B722A
S2144052100123FB60BB88002B05D107F11F033B61D0
S21440522001237B6103E03B683B61BB887B61094BA4
S2144052305B6807F1080211461846074B9847034635
S214405240002B02D04FF0FF3300E0002318462037F3
S214405250BD4680BDF40100202193400080B588B053
S21440526000AF3B600346FB710B46BB711346BB80E9
S214405270FB793B77BB793B7301233B613B687B61A2
S214405280BB88BB61094B5B6807F10C0211461846A8
S214405290074B98470346002B02D04FF0FF3300E001
S2144052A0002318462037BD4680BD00BFF4010020CD
S2144052B01592400080B582B000AF1048104B98471A
S2144052C078607B6803F00803002B12D008210B4857
S2144052D00C4B9847082109480B4B9847082107482C
S2144052E00A4B98470A4B1B68002B02D0084B1B689A
S2144052F0984700BF0837BD4680BD00BF60140E40CB
S214405300F98B4000DD8B4000118C4000C18B400083
S2144053108C3A002080B483B000AF0346FB71094945
S21440532097F907305B09FA7902F01F02012000FA6C
S21440533002F2603341F8232000BF0C37BD465DF8CB
S214405340047B704700E100E080B483B000AF786033
S2144053507B6880221A6000BF0C37BD465DF8047B30
S214405360704780B483B000AF78607B6801221A60D3
S21440537000BF0C37BD465DF8047B704780B483B0F1
S21440538000AF78607B6802221A6000BF0C37BD46CB
S2144053905DF8047B704780B483B000AF78607B686C
S2144053A04FF080721A6000BF0C37BD465DF8047B34
S2144053B0704780B483B000AF78607B685B6843F02A
S2144053C001027B685A6000BF0C37BD465DF8047B1F
S2144053D0704780B483B000AF78607B685B6843F00A
S2144053E010027B685A6000BF0C37BD465DF8047BF0
S2144053F0704780B483B000AF78607B681B691846FE
S2144054000C37BD465DF8047B704780B483B000AF70
S214405410786039607B683A685A6100BF0C37BD4691
S2144054205DF8047B704780B483B000AF7860396025
S2144054307B683A689A6100BF0C37BD465DF8047BCE
S214405440704780B483B000AF78607B6803F58073A4
S21440545018460C37BD465DF8047B704780B483B071
S21440546000AF78607B68072B25D801A252F823F05E
S21440547091544000975440009D544000A35440002F
S214405480A7544000AB544000AF544000B3544000D3
S2144054904FF4FA4310E04FF400430DE04FF400435E
S2144054A00AE0084B08E0084B06E0084B04E00023FF
S2144054B002E0002300E0002318460C37BD465DF8A6
S2144054C0047B704700127A000024F40000366E0118
S2144054D080B500AF0120044B9847024640F64E6325
S2144054E003FB02F3184680BD5D54400080B500AF14
S2144054F0024B98470346184680BD00BFD154400033
S21440550080B489B000AF78607B68FB61FB69BB61A3
S214405510BB695A09FB697B617B6903F01F03012164
S21440552001FA03F33A61FB603B69BB60BB6803F575
S214405530001303F207735B021A46FB68536000BF12
S2144055402437BD465DF8047B704780B48DB000AF0D
S214405550786039607B68FB623B68BB62FB6A7B6253
S2144055607B6A5A09FB6A3B623B6A03F01F030121D0
S21440557001FA03F3FA61BB61BB6A7B61FB693B617D
S2144055803B6903F5001303F207735B02FB607B691C
S21440559003F00803002B03D0FB68BA695A6602E0A2
S2144055A0FB68BA691A667B6903F01003002B04D0C7
S2144055B0FB68BA69C3F8942003E0FB68BA69C3F88D
S2144055C090207B6903F02003002B03D0FB68BA6968
S2144055D01A6502E0FB68BA695A657B6903F0C00346
S2144055E0002B03D0FB68BA691A6202E0FB68BA690E
S2144055F05A627B6903F08003002B04D0FB68BA69CB
S214405600C3F8842003E0FB68BA69C3F880207B694E
S21440561003F00103002B06D0FB681A6FBB691A43E0
S214405620FB681A6706E0FB681A6FBB69DB431A40E3
S214405630FB681A677B6903F00203002B06D0FB6801
S2144056405A6FBB691A43FB685A6706E0FB685A6F95
S214405650BB69DB431A40FB685A6700BF3437BD4618
S2144056605DF8047B7047000090B583B000AF78606B
S2144056703A4A7B6841F28C0101FB03F3134404333E
S2144056801B6840F202211846354B9847334A7B68E0
S21440569041F28C0101FB03F3134403F583531C339F
S2144056A093F9003018462F4B98472C4A7B6841F2B6
S2144056B08C0101FB03F313441B681B6903F0400392
S2144056C0002B47D0254A7B6841F28C0101FB03F34F
S2144056D0134403F58453043318687B6841F28C0204
S2144056E002FB03F303F659031C4A13441C1D1B4AD2
S2144056F07B6841F28C0101FB03F3134403F58453AA
S21440570008331B881A462146174B9847134A7B682E
S21440571041F28C0101FB03F313441B6840211846F9
S214405720124B98470D4A7B6841F28C0101FB03F30C
S214405730134403F584531B68002B0BD0074A7B6841
S21440574041F28C0101FB03F3134403F584531B68B9
S2144057500020984700BF0C37BD4690BD140200207D
S214405760998140001553400041F8400027544000BE
S214405770B0B582B000AF78603960B54A7B6841F218
S2144057808C0101FB03F313441C331868B04A7B6852
S21440579041F28C0101FB03F3134420331B68194686
S2144057A0AC4B9847AA4A7B6841F28C0101FB03F355
S2144057B0134424331868A64A7B6841F28C0101FBE7
S2144057C003F3134428331B681946A24B9847A04A54
S2144057D07B6841F28C0101FB03F313442C331868B9
S2144057E09B4A7B6841F28C0101FB03F31344303340
S2144057F01B681946974B9847954A7B6841F28C013F
S21440580001FB03F3134434331868914A7B6841F232
S2144058108C0101FB03F3134438331B6819468D4B48
S21440582098478B4A7B6841F28C0101FB03F3134493
S2144058301C331B681846884B9847854A7B6841F25C
S2144058408C0101FB03F3134424331B681846824B38
S21440585098477F4A7B6841F28C0101FB03F313446F
S2144058602C331B6818467C4B9847794A7B6841F234
S2144058708C0101FB03F3134434331B681846764B04
S2144058809847734A7B6841F28C0101FB03F313444B
S2144058901B681846714B98476D4A7B6841F28C01ED
S2144058A001FB03F3134404331860694A7B6841F2F2
S2144058B08C0101FB03F3134408331B681846684BFE
S2144058C09847634A7B6841F28C0101FB03F313441B
